{
	"contracts/Arrays.sol": {
		"Arrays": {
			"abi": [
				{
					"inputs": [
						{
							"internalType": "string",
							"name": "_name",
							"type": "string"
						},
						{
							"internalType": "uint256",
							"name": "_id",
							"type": "uint256"
						}
					],
					"name": "create",
					"outputs": [],
					"stateMutability": "nonpayable",
					"type": "function"
				},
				{
					"inputs": [],
					"name": "read",
					"outputs": [
						{
							"components": [
								{
									"internalType": "string",
									"name": "name",
									"type": "string"
								},
								{
									"internalType": "uint256",
									"name": "id",
									"type": "uint256"
								},
								{
									"internalType": "bool",
									"name": "verify",
									"type": "bool"
								}
							],
							"internalType": "struct Arrays.Item[]",
							"name": "",
							"type": "tuple[]"
						}
					],
					"stateMutability": "view",
					"type": "function"
				},
				{
					"inputs": [
						{
							"internalType": "uint256",
							"name": "",
							"type": "uint256"
						}
					],
					"name": "students",
					"outputs": [
						{
							"internalType": "string",
							"name": "name",
							"type": "string"
						},
						{
							"internalType": "uint256",
							"name": "id",
							"type": "uint256"
						},
						{
							"internalType": "bool",
							"name": "verify",
							"type": "bool"
						}
					],
					"stateMutability": "view",
					"type": "function"
				},
				{
					"inputs": [
						{
							"internalType": "uint256",
							"name": "id",
							"type": "uint256"
						}
					],
					"name": "update",
					"outputs": [],
					"stateMutability": "nonpayable",
					"type": "function"
				}
			],
			"devdoc": {
				"kind": "dev",
				"methods": {},
				"version": 1
			},
			"evm": {
				"assembly": "    /* \"contracts/Arrays.sol\":69:847  contract Arrays{\r... */\n  mstore(0x40, 0x80)\n  callvalue\n  dup1\n  iszero\n  tag_1\n  jumpi\n  0x00\n  dup1\n  revert\ntag_1:\n  pop\n  dataSize(sub_0)\n  dup1\n  dataOffset(sub_0)\n  0x00\n  codecopy\n  0x00\n  return\nstop\n\nsub_0: assembly {\n        /* \"contracts/Arrays.sol\":69:847  contract Arrays{\r... */\n      mstore(0x40, 0x80)\n      callvalue\n      dup1\n      iszero\n      tag_1\n      jumpi\n      0x00\n      dup1\n      revert\n    tag_1:\n      pop\n      jumpi(tag_2, lt(calldatasize, 0x04))\n      shr(0xe0, calldataload(0x00))\n      dup1\n      0x06ead22e\n      eq\n      tag_3\n      jumpi\n      dup1\n      0x46f81a87\n      eq\n      tag_4\n      jumpi\n      dup1\n      0x57de26a4\n      eq\n      tag_5\n      jumpi\n      dup1\n      0x82ab890a\n      eq\n      tag_6\n      jumpi\n    tag_2:\n      0x00\n      dup1\n      revert\n        /* \"contracts/Arrays.sol\":189:211  Item[] public students */\n    tag_3:\n      tag_7\n      0x04\n      dup1\n      calldatasize\n      sub\n      dup2\n      add\n      swap1\n      tag_8\n      swap2\n      swap1\n      tag_9\n      jump\t// in\n    tag_8:\n      tag_10\n      jump\t// in\n    tag_7:\n      mload(0x40)\n      tag_11\n      swap4\n      swap3\n      swap2\n      swap1\n      tag_12\n      jump\t// in\n    tag_11:\n      mload(0x40)\n      dup1\n      swap2\n      sub\n      swap1\n      return\n        /* \"contracts/Arrays.sol\":220:333  function create(string memory _name, uint256 _id) public {\r... */\n    tag_4:\n      tag_13\n      0x04\n      dup1\n      calldatasize\n      sub\n      dup2\n      add\n      swap1\n      tag_14\n      swap2\n      swap1\n      tag_15\n      jump\t// in\n    tag_14:\n      tag_16\n      jump\t// in\n    tag_13:\n      stop\n        /* \"contracts/Arrays.sol\":596:682  function read() public view returns (Item[] memory) {\r... */\n    tag_5:\n      tag_17\n      tag_18\n      jump\t// in\n    tag_17:\n      mload(0x40)\n      tag_19\n      swap2\n      swap1\n      tag_20\n      jump\t// in\n    tag_19:\n      mload(0x40)\n      dup1\n      swap2\n      sub\n      swap1\n      return\n        /* \"contracts/Arrays.sol\":690:843  function update(uint256 id) public {\r... */\n    tag_6:\n      tag_21\n      0x04\n      dup1\n      calldatasize\n      sub\n      dup2\n      add\n      swap1\n      tag_22\n      swap2\n      swap1\n      tag_9\n      jump\t// in\n    tag_22:\n      tag_23\n      jump\t// in\n    tag_21:\n      stop\n        /* \"contracts/Arrays.sol\":189:211  Item[] public students */\n    tag_10:\n      0x00\n      dup2\n      dup2\n      sload\n      dup2\n      lt\n      tag_24\n      jumpi\n      0x00\n      dup1\n      revert\n    tag_24:\n      swap1\n      0x00\n      mstore\n      keccak256(0x00, 0x20)\n      swap1\n      0x03\n      mul\n      add\n      0x00\n      swap2\n      pop\n      swap1\n      pop\n      dup1\n      0x00\n      add\n      dup1\n      sload\n      tag_26\n      swap1\n      tag_27\n      jump\t// in\n    tag_26:\n      dup1\n      0x1f\n      add\n      0x20\n      dup1\n      swap2\n      div\n      mul\n      0x20\n      add\n      mload(0x40)\n      swap1\n      dup2\n      add\n      0x40\n      mstore\n      dup1\n      swap3\n      swap2\n      swap1\n      dup2\n      dup2\n      mstore\n      0x20\n      add\n      dup3\n      dup1\n      sload\n      tag_28\n      swap1\n      tag_27\n      jump\t// in\n    tag_28:\n      dup1\n      iszero\n      tag_29\n      jumpi\n      dup1\n      0x1f\n      lt\n      tag_30\n      jumpi\n      0x0100\n      dup1\n      dup4\n      sload\n      div\n      mul\n      dup4\n      mstore\n      swap2\n      0x20\n      add\n      swap2\n      jump(tag_29)\n    tag_30:\n      dup3\n      add\n      swap2\n      swap1\n      0x00\n      mstore\n      keccak256(0x00, 0x20)\n      swap1\n    tag_31:\n      dup2\n      sload\n      dup2\n      mstore\n      swap1\n      0x01\n      add\n      swap1\n      0x20\n      add\n      dup1\n      dup4\n      gt\n      tag_31\n      jumpi\n      dup3\n      swap1\n      sub\n      0x1f\n      and\n      dup3\n      add\n      swap2\n    tag_29:\n      pop\n      pop\n      pop\n      pop\n      pop\n      swap1\n      dup1\n      0x01\n      add\n      sload\n      swap1\n      dup1\n      0x02\n      add\n      0x00\n      swap1\n      sload\n      swap1\n      0x0100\n      exp\n      swap1\n      div\n      0xff\n      and\n      swap1\n      pop\n      dup4\n      jump\t// out\n        /* \"contracts/Arrays.sol\":220:333  function create(string memory _name, uint256 _id) public {\r... */\n    tag_16:\n        /* \"contracts/Arrays.sol\":288:296  students */\n      0x00\n        /* \"contracts/Arrays.sol\":302:324  Item(_name, _id, true) */\n      mload(0x40)\n      dup1\n      0x60\n      add\n      0x40\n      mstore\n      dup1\n        /* \"contracts/Arrays.sol\":307:312  _name */\n      dup5\n        /* \"contracts/Arrays.sol\":302:324  Item(_name, _id, true) */\n      dup2\n      mstore\n      0x20\n      add\n        /* \"contracts/Arrays.sol\":314:317  _id */\n      dup4\n        /* \"contracts/Arrays.sol\":302:324  Item(_name, _id, true) */\n      dup2\n      mstore\n      0x20\n      add\n        /* \"contracts/Arrays.sol\":319:323  true */\n      0x01\n        /* \"contracts/Arrays.sol\":302:324  Item(_name, _id, true) */\n      iszero\n      iszero\n      dup2\n      mstore\n      pop\n        /* \"contracts/Arrays.sol\":288:325  students.push(Item(_name, _id, true)) */\n      swap1\n      dup1\n      0x01\n      dup2\n      sload\n      add\n      dup1\n      dup3\n      sstore\n      dup1\n      swap2\n      pop\n      pop\n      0x01\n      swap1\n      sub\n      swap1\n      0x00\n      mstore\n      keccak256(0x00, 0x20)\n      swap1\n      0x03\n      mul\n      add\n      0x00\n      swap1\n      swap2\n      swap1\n      swap2\n      swap1\n      swap2\n      pop\n      0x00\n      dup3\n      add\n      mload\n      dup2\n      0x00\n      add\n      swap1\n      dup1\n      mload\n      swap1\n      0x20\n      add\n      swap1\n      tag_34\n      swap3\n      swap2\n      swap1\n      tag_35\n      jump\t// in\n    tag_34:\n      pop\n      0x20\n      dup3\n      add\n      mload\n      dup2\n      0x01\n      add\n      sstore\n      0x40\n      dup3\n      add\n      mload\n      dup2\n      0x02\n      add\n      exp(0x0100, 0x00)\n      dup2\n      sload\n      dup2\n      0xff\n      mul\n      not\n      and\n      swap1\n      dup4\n      iszero\n      iszero\n      mul\n      or\n      swap1\n      sstore\n      pop\n      pop\n      pop\n        /* \"contracts/Arrays.sol\":220:333  function create(string memory _name, uint256 _id) public {\r... */\n      pop\n      pop\n      jump\t// out\n        /* \"contracts/Arrays.sol\":596:682  function read() public view returns (Item[] memory) {\r... */\n    tag_18:\n        /* \"contracts/Arrays.sol\":633:646  Item[] memory */\n      0x60\n        /* \"contracts/Arrays.sol\":666:674  students */\n      0x00\n        /* \"contracts/Arrays.sol\":659:674  return students */\n      dup1\n      sload\n      dup1\n      0x20\n      mul\n      0x20\n      add\n      mload(0x40)\n      swap1\n      dup2\n      add\n      0x40\n      mstore\n      dup1\n      swap3\n      swap2\n      swap1\n      dup2\n      dup2\n      mstore\n      0x20\n      add\n      0x00\n      swap1\n    tag_37:\n      dup3\n      dup3\n      lt\n      iszero\n      tag_38\n      jumpi\n      dup4\n      dup3\n      swap1\n      0x00\n      mstore\n      keccak256(0x00, 0x20)\n      swap1\n      0x03\n      mul\n      add\n      mload(0x40)\n      dup1\n      0x60\n      add\n      0x40\n      mstore\n      swap1\n      dup2\n      0x00\n      dup3\n      add\n      dup1\n      sload\n      tag_40\n      swap1\n      tag_27\n      jump\t// in\n    tag_40:\n      dup1\n      0x1f\n      add\n      0x20\n      dup1\n      swap2\n      div\n      mul\n      0x20\n      add\n      mload(0x40)\n      swap1\n      dup2\n      add\n      0x40\n      mstore\n      dup1\n      swap3\n      swap2\n      swap1\n      dup2\n      dup2\n      mstore\n      0x20\n      add\n      dup3\n      dup1\n      sload\n      tag_41\n      swap1\n      tag_27\n      jump\t// in\n    tag_41:\n      dup1\n      iszero\n      tag_42\n      jumpi\n      dup1\n      0x1f\n      lt\n      tag_43\n      jumpi\n      0x0100\n      dup1\n      dup4\n      sload\n      div\n      mul\n      dup4\n      mstore\n      swap2\n      0x20\n      add\n      swap2\n      jump(tag_42)\n    tag_43:\n      dup3\n      add\n      swap2\n      swap1\n      0x00\n      mstore\n      keccak256(0x00, 0x20)\n      swap1\n    tag_44:\n      dup2\n      sload\n      dup2\n      mstore\n      swap1\n      0x01\n      add\n      swap1\n      0x20\n      add\n      dup1\n      dup4\n      gt\n      tag_44\n      jumpi\n      dup3\n      swap1\n      sub\n      0x1f\n      and\n      dup3\n      add\n      swap2\n    tag_42:\n      pop\n      pop\n      pop\n      pop\n      pop\n      dup2\n      mstore\n      0x20\n      add\n      0x01\n      dup3\n      add\n      sload\n      dup2\n      mstore\n      0x20\n      add\n      0x02\n      dup3\n      add\n      0x00\n      swap1\n      sload\n      swap1\n      0x0100\n      exp\n      swap1\n      div\n      0xff\n      and\n      iszero\n      iszero\n      iszero\n      iszero\n      dup2\n      mstore\n      pop\n      pop\n      dup2\n      mstore\n      0x20\n      add\n      swap1\n      0x01\n      add\n      swap1\n      jump(tag_37)\n    tag_38:\n      pop\n      pop\n      pop\n      pop\n      swap1\n      pop\n        /* \"contracts/Arrays.sol\":596:682  function read() public view returns (Item[] memory) {\r... */\n      swap1\n      jump\t// out\n        /* \"contracts/Arrays.sol\":690:843  function update(uint256 id) public {\r... */\n    tag_23:\n        /* \"contracts/Arrays.sol\":736:745  uint256 i */\n      0x00\n        /* \"contracts/Arrays.sol\":748:756  find(id) */\n      tag_46\n        /* \"contracts/Arrays.sol\":753:755  id */\n      dup3\n        /* \"contracts/Arrays.sol\":748:752  find */\n      tag_47\n        /* \"contracts/Arrays.sol\":748:756  find(id) */\n      jump\t// in\n    tag_46:\n        /* \"contracts/Arrays.sol\":736:756  uint256 i = find(id) */\n      swap1\n      pop\n        /* \"contracts/Arrays.sol\":789:797  students */\n      0x00\n        /* \"contracts/Arrays.sol\":798:799  i */\n      dup2\n        /* \"contracts/Arrays.sol\":789:800  students[i] */\n      dup2\n      sload\n      dup2\n      lt\n      tag_48\n      jumpi\n      mstore(0x00, 0x4e487b7100000000000000000000000000000000000000000000000000000000)\n      mstore(0x04, 0x32)\n      revert(0x00, 0x24)\n    tag_48:\n      swap1\n      0x00\n      mstore\n      keccak256(0x00, 0x20)\n      swap1\n      0x03\n      mul\n      add\n        /* \"contracts/Arrays.sol\":789:807  students[i].verify */\n      0x02\n      add\n      0x00\n      swap1\n      sload\n      swap1\n      0x0100\n      exp\n      swap1\n      div\n      0xff\n      and\n        /* \"contracts/Arrays.sol\":788:807  !students[i].verify */\n      iszero\n        /* \"contracts/Arrays.sol\":767:775  students */\n      0x00\n        /* \"contracts/Arrays.sol\":776:777  i */\n      dup3\n        /* \"contracts/Arrays.sol\":767:778  students[i] */\n      dup2\n      sload\n      dup2\n      lt\n      tag_50\n      jumpi\n      mstore(0x00, 0x4e487b7100000000000000000000000000000000000000000000000000000000)\n      mstore(0x04, 0x32)\n      revert(0x00, 0x24)\n    tag_50:\n      swap1\n      0x00\n      mstore\n      keccak256(0x00, 0x20)\n      swap1\n      0x03\n      mul\n      add\n        /* \"contracts/Arrays.sol\":767:785  students[i].verify */\n      0x02\n      add\n      0x00\n        /* \"contracts/Arrays.sol\":767:807  students[i].verify = !students[i].verify */\n      0x0100\n      exp\n      dup2\n      sload\n      dup2\n      0xff\n      mul\n      not\n      and\n      swap1\n      dup4\n      iszero\n      iszero\n      mul\n      or\n      swap1\n      sstore\n      pop\n        /* \"contracts/Arrays.sol\":690:843  function update(uint256 id) public {\r... */\n      pop\n      pop\n      jump\t// out\n        /* \"contracts/Arrays.sol\":341:588  function find(uint256 id) internal view returns (uint256){\r... */\n    tag_47:\n        /* \"contracts/Arrays.sol\":390:397  uint256 */\n      0x00\n        /* \"contracts/Arrays.sol\":413:422  uint256 i */\n      dup1\n        /* \"contracts/Arrays.sol\":425:426  0 */\n      0x00\n        /* \"contracts/Arrays.sol\":413:426  uint256 i = 0 */\n      swap1\n      pop\n        /* \"contracts/Arrays.sol\":409:546  for(uint256 i = 0; i < students.length; i++){\r... */\n    tag_53:\n        /* \"contracts/Arrays.sol\":432:440  students */\n      0x00\n        /* \"contracts/Arrays.sol\":432:447  students.length */\n      dup1\n      sload\n      swap1\n      pop\n        /* \"contracts/Arrays.sol\":428:429  i */\n      dup2\n        /* \"contracts/Arrays.sol\":428:447  i < students.length */\n      lt\n        /* \"contracts/Arrays.sol\":409:546  for(uint256 i = 0; i < students.length; i++){\r... */\n      iszero\n      tag_54\n      jumpi\n        /* \"contracts/Arrays.sol\":489:491  id */\n      dup3\n        /* \"contracts/Arrays.sol\":471:479  students */\n      0x00\n        /* \"contracts/Arrays.sol\":480:481  i */\n      dup3\n        /* \"contracts/Arrays.sol\":471:482  students[i] */\n      dup2\n      sload\n      dup2\n      lt\n      tag_56\n      jumpi\n      mstore(0x00, 0x4e487b7100000000000000000000000000000000000000000000000000000000)\n      mstore(0x04, 0x32)\n      revert(0x00, 0x24)\n    tag_56:\n      swap1\n      0x00\n      mstore\n      keccak256(0x00, 0x20)\n      swap1\n      0x03\n      mul\n      add\n        /* \"contracts/Arrays.sol\":471:485  students[i].id */\n      0x01\n      add\n      sload\n        /* \"contracts/Arrays.sol\":471:491  students[i].id == id */\n      eq\n        /* \"contracts/Arrays.sol\":468:535  if(students[i].id == id){\r... */\n      iszero\n      tag_58\n      jumpi\n        /* \"contracts/Arrays.sol\":518:519  i */\n      dup1\n        /* \"contracts/Arrays.sol\":511:519  return i */\n      swap2\n      pop\n      pop\n      jump(tag_52)\n        /* \"contracts/Arrays.sol\":468:535  if(students[i].id == id){\r... */\n    tag_58:\n        /* \"contracts/Arrays.sol\":449:452  i++ */\n      dup1\n      dup1\n      tag_59\n      swap1\n      tag_60\n      jump\t// in\n    tag_59:\n      swap2\n      pop\n      pop\n        /* \"contracts/Arrays.sol\":409:546  for(uint256 i = 0; i < students.length; i++){\r... */\n      jump(tag_53)\n    tag_54:\n      pop\n        /* \"contracts/Arrays.sol\":556:580  revert('does not exist') */\n      mload(0x40)\n      0x08c379a000000000000000000000000000000000000000000000000000000000\n      dup2\n      mstore\n      0x04\n      add\n      tag_61\n      swap1\n      tag_62\n      jump\t// in\n    tag_61:\n      mload(0x40)\n      dup1\n      swap2\n      sub\n      swap1\n      revert\n        /* \"contracts/Arrays.sol\":341:588  function find(uint256 id) internal view returns (uint256){\r... */\n    tag_52:\n      swap2\n      swap1\n      pop\n      jump\t// out\n    tag_35:\n      dup3\n      dup1\n      sload\n      tag_63\n      swap1\n      tag_27\n      jump\t// in\n    tag_63:\n      swap1\n      0x00\n      mstore\n      keccak256(0x00, 0x20)\n      swap1\n      0x1f\n      add\n      0x20\n      swap1\n      div\n      dup2\n      add\n      swap3\n      dup3\n      tag_65\n      jumpi\n      0x00\n      dup6\n      sstore\n      jump(tag_64)\n    tag_65:\n      dup3\n      0x1f\n      lt\n      tag_66\n      jumpi\n      dup1\n      mload\n      not(0xff)\n      and\n      dup4\n      dup1\n      add\n      or\n      dup6\n      sstore\n      jump(tag_64)\n    tag_66:\n      dup3\n      dup1\n      add\n      0x01\n      add\n      dup6\n      sstore\n      dup3\n      iszero\n      tag_64\n      jumpi\n      swap2\n      dup3\n      add\n    tag_67:\n      dup3\n      dup2\n      gt\n      iszero\n      tag_68\n      jumpi\n      dup3\n      mload\n      dup3\n      sstore\n      swap2\n      0x20\n      add\n      swap2\n      swap1\n      0x01\n      add\n      swap1\n      jump(tag_67)\n    tag_68:\n    tag_64:\n      pop\n      swap1\n      pop\n      tag_69\n      swap2\n      swap1\n      tag_70\n      jump\t// in\n    tag_69:\n      pop\n      swap1\n      jump\t// out\n    tag_70:\n    tag_71:\n      dup1\n      dup3\n      gt\n      iszero\n      tag_72\n      jumpi\n      0x00\n      dup2\n      0x00\n      swap1\n      sstore\n      pop\n      0x01\n      add\n      jump(tag_71)\n    tag_72:\n      pop\n      swap1\n      jump\t// out\n        /* \"#utility.yul\":7:351   */\n    tag_74:\n      0x00\n        /* \"#utility.yul\":110:175   */\n      tag_76\n        /* \"#utility.yul\":125:174   */\n      tag_77\n        /* \"#utility.yul\":167:173   */\n      dup5\n        /* \"#utility.yul\":125:174   */\n      tag_78\n      jump\t// in\n    tag_77:\n        /* \"#utility.yul\":110:175   */\n      tag_79\n      jump\t// in\n    tag_76:\n        /* \"#utility.yul\":101:175   */\n      swap1\n      pop\n        /* \"#utility.yul\":198:204   */\n      dup3\n        /* \"#utility.yul\":191:196   */\n      dup2\n        /* \"#utility.yul\":184:205   */\n      mstore\n        /* \"#utility.yul\":236:240   */\n      0x20\n        /* \"#utility.yul\":229:234   */\n      dup2\n        /* \"#utility.yul\":225:241   */\n      add\n        /* \"#utility.yul\":274:277   */\n      dup5\n        /* \"#utility.yul\":265:271   */\n      dup5\n        /* \"#utility.yul\":260:263   */\n      dup5\n        /* \"#utility.yul\":256:272   */\n      add\n        /* \"#utility.yul\":253:278   */\n      gt\n        /* \"#utility.yul\":250:252   */\n      iszero\n      tag_80\n      jumpi\n        /* \"#utility.yul\":291:292   */\n      0x00\n        /* \"#utility.yul\":288:289   */\n      dup1\n        /* \"#utility.yul\":281:293   */\n      revert\n        /* \"#utility.yul\":250:252   */\n    tag_80:\n        /* \"#utility.yul\":304:345   */\n      tag_81\n        /* \"#utility.yul\":338:344   */\n      dup5\n        /* \"#utility.yul\":333:336   */\n      dup3\n        /* \"#utility.yul\":328:331   */\n      dup6\n        /* \"#utility.yul\":304:345   */\n      tag_82\n      jump\t// in\n    tag_81:\n        /* \"#utility.yul\":91:351   */\n      pop\n      swap4\n      swap3\n      pop\n      pop\n      pop\n      jump\t// out\n        /* \"#utility.yul\":371:644   */\n    tag_83:\n      0x00\n        /* \"#utility.yul\":476:479   */\n      dup3\n        /* \"#utility.yul\":469:473   */\n      0x1f\n        /* \"#utility.yul\":461:467   */\n      dup4\n        /* \"#utility.yul\":457:474   */\n      add\n        /* \"#utility.yul\":453:480   */\n      slt\n        /* \"#utility.yul\":443:445   */\n      tag_85\n      jumpi\n        /* \"#utility.yul\":494:495   */\n      0x00\n        /* \"#utility.yul\":491:492   */\n      dup1\n        /* \"#utility.yul\":484:496   */\n      revert\n        /* \"#utility.yul\":443:445   */\n    tag_85:\n        /* \"#utility.yul\":534:540   */\n      dup2\n        /* \"#utility.yul\":521:541   */\n      calldataload\n        /* \"#utility.yul\":559:638   */\n      tag_86\n        /* \"#utility.yul\":634:637   */\n      dup5\n        /* \"#utility.yul\":626:632   */\n      dup3\n        /* \"#utility.yul\":619:623   */\n      0x20\n        /* \"#utility.yul\":611:617   */\n      dup7\n        /* \"#utility.yul\":607:624   */\n      add\n        /* \"#utility.yul\":559:638   */\n      tag_74\n      jump\t// in\n    tag_86:\n        /* \"#utility.yul\":550:638   */\n      swap2\n      pop\n        /* \"#utility.yul\":433:644   */\n      pop\n      swap3\n      swap2\n      pop\n      pop\n      jump\t// out\n        /* \"#utility.yul\":650:789   */\n    tag_87:\n      0x00\n        /* \"#utility.yul\":734:740   */\n      dup2\n        /* \"#utility.yul\":721:741   */\n      calldataload\n        /* \"#utility.yul\":712:741   */\n      swap1\n      pop\n        /* \"#utility.yul\":750:783   */\n      tag_89\n        /* \"#utility.yul\":777:782   */\n      dup2\n        /* \"#utility.yul\":750:783   */\n      tag_90\n      jump\t// in\n    tag_89:\n        /* \"#utility.yul\":702:789   */\n      swap3\n      swap2\n      pop\n      pop\n      jump\t// out\n        /* \"#utility.yul\":795:1315   */\n    tag_15:\n      0x00\n      dup1\n        /* \"#utility.yul\":930:932   */\n      0x40\n        /* \"#utility.yul\":918:927   */\n      dup4\n        /* \"#utility.yul\":909:916   */\n      dup6\n        /* \"#utility.yul\":905:928   */\n      sub\n        /* \"#utility.yul\":901:933   */\n      slt\n        /* \"#utility.yul\":898:900   */\n      iszero\n      tag_92\n      jumpi\n        /* \"#utility.yul\":946:947   */\n      0x00\n        /* \"#utility.yul\":943:944   */\n      dup1\n        /* \"#utility.yul\":936:948   */\n      revert\n        /* \"#utility.yul\":898:900   */\n    tag_92:\n        /* \"#utility.yul\":1017:1018   */\n      0x00\n        /* \"#utility.yul\":1006:1015   */\n      dup4\n        /* \"#utility.yul\":1002:1019   */\n      add\n        /* \"#utility.yul\":989:1020   */\n      calldataload\n        /* \"#utility.yul\":1047:1065   */\n      0xffffffffffffffff\n        /* \"#utility.yul\":1039:1045   */\n      dup2\n        /* \"#utility.yul\":1036:1066   */\n      gt\n        /* \"#utility.yul\":1033:1035   */\n      iszero\n      tag_93\n      jumpi\n        /* \"#utility.yul\":1079:1080   */\n      0x00\n        /* \"#utility.yul\":1076:1077   */\n      dup1\n        /* \"#utility.yul\":1069:1081   */\n      revert\n        /* \"#utility.yul\":1033:1035   */\n    tag_93:\n        /* \"#utility.yul\":1107:1170   */\n      tag_94\n        /* \"#utility.yul\":1162:1169   */\n      dup6\n        /* \"#utility.yul\":1153:1159   */\n      dup3\n        /* \"#utility.yul\":1142:1151   */\n      dup7\n        /* \"#utility.yul\":1138:1160   */\n      add\n        /* \"#utility.yul\":1107:1170   */\n      tag_83\n      jump\t// in\n    tag_94:\n        /* \"#utility.yul\":1097:1170   */\n      swap3\n      pop\n        /* \"#utility.yul\":960:1180   */\n      pop\n        /* \"#utility.yul\":1219:1221   */\n      0x20\n        /* \"#utility.yul\":1245:1298   */\n      tag_95\n        /* \"#utility.yul\":1290:1297   */\n      dup6\n        /* \"#utility.yul\":1281:1287   */\n      dup3\n        /* \"#utility.yul\":1270:1279   */\n      dup7\n        /* \"#utility.yul\":1266:1288   */\n      add\n        /* \"#utility.yul\":1245:1298   */\n      tag_87\n      jump\t// in\n    tag_95:\n        /* \"#utility.yul\":1235:1298   */\n      swap2\n      pop\n        /* \"#utility.yul\":1190:1308   */\n      pop\n        /* \"#utility.yul\":888:1315   */\n      swap3\n      pop\n      swap3\n      swap1\n      pop\n      jump\t// out\n        /* \"#utility.yul\":1321:1583   */\n    tag_9:\n      0x00\n        /* \"#utility.yul\":1429:1431   */\n      0x20\n        /* \"#utility.yul\":1417:1426   */\n      dup3\n        /* \"#utility.yul\":1408:1415   */\n      dup5\n        /* \"#utility.yul\":1404:1427   */\n      sub\n        /* \"#utility.yul\":1400:1432   */\n      slt\n        /* \"#utility.yul\":1397:1399   */\n      iszero\n      tag_97\n      jumpi\n        /* \"#utility.yul\":1445:1446   */\n      0x00\n        /* \"#utility.yul\":1442:1443   */\n      dup1\n        /* \"#utility.yul\":1435:1447   */\n      revert\n        /* \"#utility.yul\":1397:1399   */\n    tag_97:\n        /* \"#utility.yul\":1488:1489   */\n      0x00\n        /* \"#utility.yul\":1513:1566   */\n      tag_98\n        /* \"#utility.yul\":1558:1565   */\n      dup5\n        /* \"#utility.yul\":1549:1555   */\n      dup3\n        /* \"#utility.yul\":1538:1547   */\n      dup6\n        /* \"#utility.yul\":1534:1556   */\n      add\n        /* \"#utility.yul\":1513:1566   */\n      tag_87\n      jump\t// in\n    tag_98:\n        /* \"#utility.yul\":1503:1566   */\n      swap2\n      pop\n        /* \"#utility.yul\":1459:1576   */\n      pop\n        /* \"#utility.yul\":1387:1583   */\n      swap3\n      swap2\n      pop\n      pop\n      jump\t// out\n        /* \"#utility.yul\":1589:1821   */\n    tag_99:\n      0x00\n        /* \"#utility.yul\":1731:1815   */\n      tag_101\n        /* \"#utility.yul\":1811:1814   */\n      dup4\n        /* \"#utility.yul\":1803:1809   */\n      dup4\n        /* \"#utility.yul\":1731:1815   */\n      tag_102\n      jump\t// in\n    tag_101:\n        /* \"#utility.yul\":1717:1815   */\n      swap1\n      pop\n        /* \"#utility.yul\":1707:1821   */\n      swap3\n      swap2\n      pop\n      pop\n      jump\t// out\n        /* \"#utility.yul\":1879:2942   */\n    tag_103:\n      0x00\n        /* \"#utility.yul\":2065:2138   */\n      tag_105\n        /* \"#utility.yul\":2132:2137   */\n      dup3\n        /* \"#utility.yul\":2065:2138   */\n      tag_106\n      jump\t// in\n    tag_105:\n        /* \"#utility.yul\":2154:2259   */\n      tag_107\n        /* \"#utility.yul\":2252:2258   */\n      dup2\n        /* \"#utility.yul\":2247:2250   */\n      dup6\n        /* \"#utility.yul\":2154:2259   */\n      tag_108\n      jump\t// in\n    tag_107:\n        /* \"#utility.yul\":2147:2259   */\n      swap4\n      pop\n        /* \"#utility.yul\":2285:2288   */\n      dup4\n        /* \"#utility.yul\":2330:2334   */\n      0x20\n        /* \"#utility.yul\":2322:2328   */\n      dup3\n        /* \"#utility.yul\":2318:2335   */\n      mul\n        /* \"#utility.yul\":2313:2316   */\n      dup6\n        /* \"#utility.yul\":2309:2336   */\n      add\n        /* \"#utility.yul\":2360:2435   */\n      tag_109\n        /* \"#utility.yul\":2429:2434   */\n      dup6\n        /* \"#utility.yul\":2360:2435   */\n      tag_110\n      jump\t// in\n    tag_109:\n        /* \"#utility.yul\":2458:2465   */\n      dup1\n        /* \"#utility.yul\":2489:2490   */\n      0x00\n        /* \"#utility.yul\":2474:2897   */\n    tag_111:\n        /* \"#utility.yul\":2499:2505   */\n      dup6\n        /* \"#utility.yul\":2496:2497   */\n      dup2\n        /* \"#utility.yul\":2493:2506   */\n      lt\n        /* \"#utility.yul\":2474:2897   */\n      iszero\n      tag_113\n      jumpi\n        /* \"#utility.yul\":2570:2579   */\n      dup5\n        /* \"#utility.yul\":2564:2568   */\n      dup5\n        /* \"#utility.yul\":2560:2580   */\n      sub\n        /* \"#utility.yul\":2555:2558   */\n      dup10\n        /* \"#utility.yul\":2548:2581   */\n      mstore\n        /* \"#utility.yul\":2621:2627   */\n      dup2\n        /* \"#utility.yul\":2615:2628   */\n      mload\n        /* \"#utility.yul\":2649:2751   */\n      tag_114\n        /* \"#utility.yul\":2746:2750   */\n      dup6\n        /* \"#utility.yul\":2731:2744   */\n      dup3\n        /* \"#utility.yul\":2649:2751   */\n      tag_99\n      jump\t// in\n    tag_114:\n        /* \"#utility.yul\":2641:2751   */\n      swap5\n      pop\n        /* \"#utility.yul\":2774:2853   */\n      tag_115\n        /* \"#utility.yul\":2846:2852   */\n      dup4\n        /* \"#utility.yul\":2774:2853   */\n      tag_116\n      jump\t// in\n    tag_115:\n        /* \"#utility.yul\":2764:2853   */\n      swap3\n      pop\n        /* \"#utility.yul\":2882:2886   */\n      0x20\n        /* \"#utility.yul\":2877:2880   */\n      dup11\n        /* \"#utility.yul\":2873:2887   */\n      add\n        /* \"#utility.yul\":2866:2887   */\n      swap10\n      pop\n        /* \"#utility.yul\":2534:2897   */\n      pop\n        /* \"#utility.yul\":2521:2522   */\n      0x01\n        /* \"#utility.yul\":2518:2519   */\n      dup2\n        /* \"#utility.yul\":2514:2523   */\n      add\n        /* \"#utility.yul\":2509:2523   */\n      swap1\n      pop\n        /* \"#utility.yul\":2474:2897   */\n      jump(tag_111)\n    tag_113:\n        /* \"#utility.yul\":2478:2492   */\n      pop\n        /* \"#utility.yul\":2913:2917   */\n      dup3\n        /* \"#utility.yul\":2906:2917   */\n      swap8\n      pop\n        /* \"#utility.yul\":2933:2936   */\n      dup8\n        /* \"#utility.yul\":2926:2936   */\n      swap6\n      pop\n        /* \"#utility.yul\":2041:2942   */\n      pop\n      pop\n      pop\n      pop\n      pop\n      swap3\n      swap2\n      pop\n      pop\n      jump\t// out\n        /* \"#utility.yul\":2948:3047   */\n    tag_117:\n        /* \"#utility.yul\":3019:3040   */\n      tag_119\n        /* \"#utility.yul\":3034:3039   */\n      dup2\n        /* \"#utility.yul\":3019:3040   */\n      tag_120\n      jump\t// in\n    tag_119:\n        /* \"#utility.yul\":3014:3017   */\n      dup3\n        /* \"#utility.yul\":3007:3041   */\n      mstore\n        /* \"#utility.yul\":2997:3047   */\n      pop\n      pop\n      jump\t// out\n        /* \"#utility.yul\":3053:3162   */\n    tag_121:\n        /* \"#utility.yul\":3134:3155   */\n      tag_123\n        /* \"#utility.yul\":3149:3154   */\n      dup2\n        /* \"#utility.yul\":3134:3155   */\n      tag_120\n      jump\t// in\n    tag_123:\n        /* \"#utility.yul\":3129:3132   */\n      dup3\n        /* \"#utility.yul\":3122:3156   */\n      mstore\n        /* \"#utility.yul\":3112:3162   */\n      pop\n      pop\n      jump\t// out\n        /* \"#utility.yul\":3168:3512   */\n    tag_124:\n      0x00\n        /* \"#utility.yul\":3274:3313   */\n      tag_126\n        /* \"#utility.yul\":3307:3312   */\n      dup3\n        /* \"#utility.yul\":3274:3313   */\n      tag_127\n      jump\t// in\n    tag_126:\n        /* \"#utility.yul\":3329:3390   */\n      tag_128\n        /* \"#utility.yul\":3383:3389   */\n      dup2\n        /* \"#utility.yul\":3378:3381   */\n      dup6\n        /* \"#utility.yul\":3329:3390   */\n      tag_129\n      jump\t// in\n    tag_128:\n        /* \"#utility.yul\":3322:3390   */\n      swap4\n      pop\n        /* \"#utility.yul\":3399:3451   */\n      tag_130\n        /* \"#utility.yul\":3444:3450   */\n      dup2\n        /* \"#utility.yul\":3439:3442   */\n      dup6\n        /* \"#utility.yul\":3432:3436   */\n      0x20\n        /* \"#utility.yul\":3425:3430   */\n      dup7\n        /* \"#utility.yul\":3421:3437   */\n      add\n        /* \"#utility.yul\":3399:3451   */\n      tag_131\n      jump\t// in\n    tag_130:\n        /* \"#utility.yul\":3476:3505   */\n      tag_132\n        /* \"#utility.yul\":3498:3504   */\n      dup2\n        /* \"#utility.yul\":3476:3505   */\n      tag_133\n      jump\t// in\n    tag_132:\n        /* \"#utility.yul\":3471:3474   */\n      dup5\n        /* \"#utility.yul\":3467:3506   */\n      add\n        /* \"#utility.yul\":3460:3506   */\n      swap2\n      pop\n        /* \"#utility.yul\":3250:3512   */\n      pop\n      swap3\n      swap2\n      pop\n      pop\n      jump\t// out\n        /* \"#utility.yul\":3518:3882   */\n    tag_134:\n      0x00\n        /* \"#utility.yul\":3634:3673   */\n      tag_136\n        /* \"#utility.yul\":3667:3672   */\n      dup3\n        /* \"#utility.yul\":3634:3673   */\n      tag_127\n      jump\t// in\n    tag_136:\n        /* \"#utility.yul\":3689:3760   */\n      tag_137\n        /* \"#utility.yul\":3753:3759   */\n      dup2\n        /* \"#utility.yul\":3748:3751   */\n      dup6\n        /* \"#utility.yul\":3689:3760   */\n      tag_138\n      jump\t// in\n    tag_137:\n        /* \"#utility.yul\":3682:3760   */\n      swap4\n      pop\n        /* \"#utility.yul\":3769:3821   */\n      tag_139\n        /* \"#utility.yul\":3814:3820   */\n      dup2\n        /* \"#utility.yul\":3809:3812   */\n      dup6\n        /* \"#utility.yul\":3802:3806   */\n      0x20\n        /* \"#utility.yul\":3795:3800   */\n      dup7\n        /* \"#utility.yul\":3791:3807   */\n      add\n        /* \"#utility.yul\":3769:3821   */\n      tag_131\n      jump\t// in\n    tag_139:\n        /* \"#utility.yul\":3846:3875   */\n      tag_140\n        /* \"#utility.yul\":3868:3874   */\n      dup2\n        /* \"#utility.yul\":3846:3875   */\n      tag_133\n      jump\t// in\n    tag_140:\n        /* \"#utility.yul\":3841:3844   */\n      dup5\n        /* \"#utility.yul\":3837:3876   */\n      add\n        /* \"#utility.yul\":3830:3876   */\n      swap2\n      pop\n        /* \"#utility.yul\":3610:3882   */\n      pop\n      swap3\n      swap2\n      pop\n      pop\n      jump\t// out\n        /* \"#utility.yul\":3888:4200   */\n    tag_141:\n      0x00\n        /* \"#utility.yul\":4051:4118   */\n      tag_143\n        /* \"#utility.yul\":4115:4117   */\n      0x0e\n        /* \"#utility.yul\":4110:4113   */\n      dup4\n        /* \"#utility.yul\":4051:4118   */\n      tag_138\n      jump\t// in\n    tag_143:\n        /* \"#utility.yul\":4044:4118   */\n      swap2\n      pop\n        /* \"#utility.yul\":4148:4164   */\n      0x646f6573206e6f74206578697374000000000000000000000000000000000000\n        /* \"#utility.yul\":4144:4145   */\n      0x00\n        /* \"#utility.yul\":4139:4142   */\n      dup4\n        /* \"#utility.yul\":4135:4146   */\n      add\n        /* \"#utility.yul\":4128:4165   */\n      mstore\n        /* \"#utility.yul\":4191:4193   */\n      0x20\n        /* \"#utility.yul\":4186:4189   */\n      dup3\n        /* \"#utility.yul\":4182:4194   */\n      add\n        /* \"#utility.yul\":4175:4194   */\n      swap1\n      pop\n        /* \"#utility.yul\":4034:4200   */\n      swap2\n      swap1\n      pop\n      jump\t// out\n        /* \"#utility.yul\":4254:5006   */\n    tag_102:\n      0x00\n        /* \"#utility.yul\":4387:4391   */\n      0x60\n        /* \"#utility.yul\":4382:4385   */\n      dup4\n        /* \"#utility.yul\":4378:4392   */\n      add\n        /* \"#utility.yul\":4474:4478   */\n      0x00\n        /* \"#utility.yul\":4467:4472   */\n      dup4\n        /* \"#utility.yul\":4463:4479   */\n      add\n        /* \"#utility.yul\":4457:4480   */\n      mload\n        /* \"#utility.yul\":4527:4530   */\n      dup5\n        /* \"#utility.yul\":4521:4525   */\n      dup3\n        /* \"#utility.yul\":4517:4531   */\n      sub\n        /* \"#utility.yul\":4510:4514   */\n      0x00\n        /* \"#utility.yul\":4505:4508   */\n      dup7\n        /* \"#utility.yul\":4501:4515   */\n      add\n        /* \"#utility.yul\":4494:4532   */\n      mstore\n        /* \"#utility.yul\":4553:4626   */\n      tag_145\n        /* \"#utility.yul\":4621:4625   */\n      dup3\n        /* \"#utility.yul\":4607:4619   */\n      dup3\n        /* \"#utility.yul\":4553:4626   */\n      tag_124\n      jump\t// in\n    tag_145:\n        /* \"#utility.yul\":4545:4626   */\n      swap2\n      pop\n        /* \"#utility.yul\":4402:4637   */\n      pop\n        /* \"#utility.yul\":4717:4721   */\n      0x20\n        /* \"#utility.yul\":4710:4715   */\n      dup4\n        /* \"#utility.yul\":4706:4722   */\n      add\n        /* \"#utility.yul\":4700:4723   */\n      mload\n        /* \"#utility.yul\":4736:4799   */\n      tag_146\n        /* \"#utility.yul\":4793:4797   */\n      0x20\n        /* \"#utility.yul\":4788:4791   */\n      dup7\n        /* \"#utility.yul\":4784:4798   */\n      add\n        /* \"#utility.yul\":4770:4782   */\n      dup3\n        /* \"#utility.yul\":4736:4799   */\n      tag_147\n      jump\t// in\n    tag_146:\n        /* \"#utility.yul\":4647:4809   */\n      pop\n        /* \"#utility.yul\":4893:4897   */\n      0x40\n        /* \"#utility.yul\":4886:4891   */\n      dup4\n        /* \"#utility.yul\":4882:4898   */\n      add\n        /* \"#utility.yul\":4876:4899   */\n      mload\n        /* \"#utility.yul\":4912:4969   */\n      tag_148\n        /* \"#utility.yul\":4963:4967   */\n      0x40\n        /* \"#utility.yul\":4958:4961   */\n      dup7\n        /* \"#utility.yul\":4954:4968   */\n      add\n        /* \"#utility.yul\":4940:4952   */\n      dup3\n        /* \"#utility.yul\":4912:4969   */\n      tag_117\n      jump\t// in\n    tag_148:\n        /* \"#utility.yul\":4819:4979   */\n      pop\n        /* \"#utility.yul\":4996:5000   */\n      dup1\n        /* \"#utility.yul\":4989:5000   */\n      swap2\n      pop\n        /* \"#utility.yul\":4356:5006   */\n      pop\n      swap3\n      swap2\n      pop\n      pop\n      jump\t// out\n        /* \"#utility.yul\":5012:5120   */\n    tag_147:\n        /* \"#utility.yul\":5089:5113   */\n      tag_150\n        /* \"#utility.yul\":5107:5112   */\n      dup2\n        /* \"#utility.yul\":5089:5113   */\n      tag_151\n      jump\t// in\n    tag_150:\n        /* \"#utility.yul\":5084:5087   */\n      dup3\n        /* \"#utility.yul\":5077:5114   */\n      mstore\n        /* \"#utility.yul\":5067:5120   */\n      pop\n      pop\n      jump\t// out\n        /* \"#utility.yul\":5126:5244   */\n    tag_152:\n        /* \"#utility.yul\":5213:5237   */\n      tag_154\n        /* \"#utility.yul\":5231:5236   */\n      dup2\n        /* \"#utility.yul\":5213:5237   */\n      tag_151\n      jump\t// in\n    tag_154:\n        /* \"#utility.yul\":5208:5211   */\n      dup3\n        /* \"#utility.yul\":5201:5238   */\n      mstore\n        /* \"#utility.yul\":5191:5244   */\n      pop\n      pop\n      jump\t// out\n        /* \"#utility.yul\":5250:5699   */\n    tag_20:\n      0x00\n        /* \"#utility.yul\":5469:5471   */\n      0x20\n        /* \"#utility.yul\":5458:5467   */\n      dup3\n        /* \"#utility.yul\":5454:5472   */\n      add\n        /* \"#utility.yul\":5446:5472   */\n      swap1\n      pop\n        /* \"#utility.yul\":5518:5527   */\n      dup2\n        /* \"#utility.yul\":5512:5516   */\n      dup2\n        /* \"#utility.yul\":5508:5528   */\n      sub\n        /* \"#utility.yul\":5504:5505   */\n      0x00\n        /* \"#utility.yul\":5493:5502   */\n      dup4\n        /* \"#utility.yul\":5489:5506   */\n      add\n        /* \"#utility.yul\":5482:5529   */\n      mstore\n        /* \"#utility.yul\":5546:5692   */\n      tag_156\n        /* \"#utility.yul\":5687:5691   */\n      dup2\n        /* \"#utility.yul\":5678:5684   */\n      dup5\n        /* \"#utility.yul\":5546:5692   */\n      tag_103\n      jump\t// in\n    tag_156:\n        /* \"#utility.yul\":5538:5692   */\n      swap1\n      pop\n        /* \"#utility.yul\":5436:5699   */\n      swap3\n      swap2\n      pop\n      pop\n      jump\t// out\n        /* \"#utility.yul\":5705:6226   */\n    tag_12:\n      0x00\n        /* \"#utility.yul\":5906:5908   */\n      0x60\n        /* \"#utility.yul\":5895:5904   */\n      dup3\n        /* \"#utility.yul\":5891:5909   */\n      add\n        /* \"#utility.yul\":5883:5909   */\n      swap1\n      pop\n        /* \"#utility.yul\":5955:5964   */\n      dup2\n        /* \"#utility.yul\":5949:5953   */\n      dup2\n        /* \"#utility.yul\":5945:5965   */\n      sub\n        /* \"#utility.yul\":5941:5942   */\n      0x00\n        /* \"#utility.yul\":5930:5939   */\n      dup4\n        /* \"#utility.yul\":5926:5943   */\n      add\n        /* \"#utility.yul\":5919:5966   */\n      mstore\n        /* \"#utility.yul\":5983:6061   */\n      tag_158\n        /* \"#utility.yul\":6056:6060   */\n      dup2\n        /* \"#utility.yul\":6047:6053   */\n      dup7\n        /* \"#utility.yul\":5983:6061   */\n      tag_134\n      jump\t// in\n    tag_158:\n        /* \"#utility.yul\":5975:6061   */\n      swap1\n      pop\n        /* \"#utility.yul\":6071:6143   */\n      tag_159\n        /* \"#utility.yul\":6139:6141   */\n      0x20\n        /* \"#utility.yul\":6128:6137   */\n      dup4\n        /* \"#utility.yul\":6124:6142   */\n      add\n        /* \"#utility.yul\":6115:6121   */\n      dup6\n        /* \"#utility.yul\":6071:6143   */\n      tag_152\n      jump\t// in\n    tag_159:\n        /* \"#utility.yul\":6153:6219   */\n      tag_160\n        /* \"#utility.yul\":6215:6217   */\n      0x40\n        /* \"#utility.yul\":6204:6213   */\n      dup4\n        /* \"#utility.yul\":6200:6218   */\n      add\n        /* \"#utility.yul\":6191:6197   */\n      dup5\n        /* \"#utility.yul\":6153:6219   */\n      tag_121\n      jump\t// in\n    tag_160:\n        /* \"#utility.yul\":5873:6226   */\n      swap5\n      swap4\n      pop\n      pop\n      pop\n      pop\n      jump\t// out\n        /* \"#utility.yul\":6232:6651   */\n    tag_62:\n      0x00\n        /* \"#utility.yul\":6436:6438   */\n      0x20\n        /* \"#utility.yul\":6425:6434   */\n      dup3\n        /* \"#utility.yul\":6421:6439   */\n      add\n        /* \"#utility.yul\":6413:6439   */\n      swap1\n      pop\n        /* \"#utility.yul\":6485:6494   */\n      dup2\n        /* \"#utility.yul\":6479:6483   */\n      dup2\n        /* \"#utility.yul\":6475:6495   */\n      sub\n        /* \"#utility.yul\":6471:6472   */\n      0x00\n        /* \"#utility.yul\":6460:6469   */\n      dup4\n        /* \"#utility.yul\":6456:6473   */\n      add\n        /* \"#utility.yul\":6449:6496   */\n      mstore\n        /* \"#utility.yul\":6513:6644   */\n      tag_162\n        /* \"#utility.yul\":6639:6643   */\n      dup2\n        /* \"#utility.yul\":6513:6644   */\n      tag_141\n      jump\t// in\n    tag_162:\n        /* \"#utility.yul\":6505:6644   */\n      swap1\n      pop\n        /* \"#utility.yul\":6403:6651   */\n      swap2\n      swap1\n      pop\n      jump\t// out\n        /* \"#utility.yul\":6657:6940   */\n    tag_79:\n      0x00\n        /* \"#utility.yul\":6723:6725   */\n      0x40\n        /* \"#utility.yul\":6717:6726   */\n      mload\n        /* \"#utility.yul\":6707:6726   */\n      swap1\n      pop\n        /* \"#utility.yul\":6765:6769   */\n      dup2\n        /* \"#utility.yul\":6757:6763   */\n      dup2\n        /* \"#utility.yul\":6753:6770   */\n      add\n        /* \"#utility.yul\":6872:6878   */\n      dup2\n        /* \"#utility.yul\":6860:6870   */\n      dup2\n        /* \"#utility.yul\":6857:6879   */\n      lt\n        /* \"#utility.yul\":6836:6854   */\n      0xffffffffffffffff\n        /* \"#utility.yul\":6824:6834   */\n      dup3\n        /* \"#utility.yul\":6821:6855   */\n      gt\n        /* \"#utility.yul\":6818:6880   */\n      or\n        /* \"#utility.yul\":6815:6817   */\n      iszero\n      tag_164\n      jumpi\n        /* \"#utility.yul\":6883:6901   */\n      tag_165\n      tag_166\n      jump\t// in\n    tag_165:\n        /* \"#utility.yul\":6815:6817   */\n    tag_164:\n        /* \"#utility.yul\":6923:6933   */\n      dup1\n        /* \"#utility.yul\":6919:6921   */\n      0x40\n        /* \"#utility.yul\":6912:6934   */\n      mstore\n        /* \"#utility.yul\":6697:6940   */\n      pop\n      swap2\n      swap1\n      pop\n      jump\t// out\n        /* \"#utility.yul\":6946:7278   */\n    tag_78:\n      0x00\n        /* \"#utility.yul\":7098:7116   */\n      0xffffffffffffffff\n        /* \"#utility.yul\":7090:7096   */\n      dup3\n        /* \"#utility.yul\":7087:7117   */\n      gt\n        /* \"#utility.yul\":7084:7086   */\n      iszero\n      tag_168\n      jumpi\n        /* \"#utility.yul\":7120:7138   */\n      tag_169\n      tag_166\n      jump\t// in\n    tag_169:\n        /* \"#utility.yul\":7084:7086   */\n    tag_168:\n        /* \"#utility.yul\":7205:7209   */\n      0x1f\n        /* \"#utility.yul\":7201:7210   */\n      not\n        /* \"#utility.yul\":7194:7198   */\n      0x1f\n        /* \"#utility.yul\":7186:7192   */\n      dup4\n        /* \"#utility.yul\":7182:7199   */\n      add\n        /* \"#utility.yul\":7178:7211   */\n      and\n        /* \"#utility.yul\":7170:7211   */\n      swap1\n      pop\n        /* \"#utility.yul\":7266:7270   */\n      0x20\n        /* \"#utility.yul\":7260:7264   */\n      dup2\n        /* \"#utility.yul\":7256:7271   */\n      add\n        /* \"#utility.yul\":7248:7271   */\n      swap1\n      pop\n        /* \"#utility.yul\":7013:7278   */\n      swap2\n      swap1\n      pop\n      jump\t// out\n        /* \"#utility.yul\":7284:7435   */\n    tag_110:\n      0x00\n        /* \"#utility.yul\":7393:7396   */\n      dup2\n        /* \"#utility.yul\":7385:7396   */\n      swap1\n      pop\n        /* \"#utility.yul\":7423:7427   */\n      0x20\n        /* \"#utility.yul\":7418:7421   */\n      dup3\n        /* \"#utility.yul\":7414:7428   */\n      add\n        /* \"#utility.yul\":7406:7428   */\n      swap1\n      pop\n        /* \"#utility.yul\":7375:7435   */\n      swap2\n      swap1\n      pop\n      jump\t// out\n        /* \"#utility.yul\":7441:7574   */\n    tag_106:\n      0x00\n        /* \"#utility.yul\":7561:7566   */\n      dup2\n        /* \"#utility.yul\":7555:7567   */\n      mload\n        /* \"#utility.yul\":7545:7567   */\n      swap1\n      pop\n        /* \"#utility.yul\":7534:7574   */\n      swap2\n      swap1\n      pop\n      jump\t// out\n        /* \"#utility.yul\":7580:7679   */\n    tag_127:\n      0x00\n        /* \"#utility.yul\":7666:7671   */\n      dup2\n        /* \"#utility.yul\":7660:7672   */\n      mload\n        /* \"#utility.yul\":7650:7672   */\n      swap1\n      pop\n        /* \"#utility.yul\":7639:7679   */\n      swap2\n      swap1\n      pop\n      jump\t// out\n        /* \"#utility.yul\":7685:7817   */\n    tag_116:\n      0x00\n        /* \"#utility.yul\":7806:7810   */\n      0x20\n        /* \"#utility.yul\":7801:7804   */\n      dup3\n        /* \"#utility.yul\":7797:7811   */\n      add\n        /* \"#utility.yul\":7789:7811   */\n      swap1\n      pop\n        /* \"#utility.yul\":7779:7817   */\n      swap2\n      swap1\n      pop\n      jump\t// out\n        /* \"#utility.yul\":7823:8026   */\n    tag_108:\n      0x00\n        /* \"#utility.yul\":7975:7981   */\n      dup3\n        /* \"#utility.yul\":7970:7973   */\n      dup3\n        /* \"#utility.yul\":7963:7982   */\n      mstore\n        /* \"#utility.yul\":8015:8019   */\n      0x20\n        /* \"#utility.yul\":8010:8013   */\n      dup3\n        /* \"#utility.yul\":8006:8020   */\n      add\n        /* \"#utility.yul\":7991:8020   */\n      swap1\n      pop\n        /* \"#utility.yul\":7953:8026   */\n      swap3\n      swap2\n      pop\n      pop\n      jump\t// out\n        /* \"#utility.yul\":8032:8191   */\n    tag_129:\n      0x00\n        /* \"#utility.yul\":8140:8146   */\n      dup3\n        /* \"#utility.yul\":8135:8138   */\n      dup3\n        /* \"#utility.yul\":8128:8147   */\n      mstore\n        /* \"#utility.yul\":8180:8184   */\n      0x20\n        /* \"#utility.yul\":8175:8178   */\n      dup3\n        /* \"#utility.yul\":8171:8185   */\n      add\n        /* \"#utility.yul\":8156:8185   */\n      swap1\n      pop\n        /* \"#utility.yul\":8118:8191   */\n      swap3\n      swap2\n      pop\n      pop\n      jump\t// out\n        /* \"#utility.yul\":8197:8366   */\n    tag_138:\n      0x00\n        /* \"#utility.yul\":8315:8321   */\n      dup3\n        /* \"#utility.yul\":8310:8313   */\n      dup3\n        /* \"#utility.yul\":8303:8322   */\n      mstore\n        /* \"#utility.yul\":8355:8359   */\n      0x20\n        /* \"#utility.yul\":8350:8353   */\n      dup3\n        /* \"#utility.yul\":8346:8360   */\n      add\n        /* \"#utility.yul\":8331:8360   */\n      swap1\n      pop\n        /* \"#utility.yul\":8293:8366   */\n      swap3\n      swap2\n      pop\n      pop\n      jump\t// out\n        /* \"#utility.yul\":8372:8462   */\n    tag_120:\n      0x00\n        /* \"#utility.yul\":8449:8454   */\n      dup2\n        /* \"#utility.yul\":8442:8455   */\n      iszero\n        /* \"#utility.yul\":8435:8456   */\n      iszero\n        /* \"#utility.yul\":8424:8456   */\n      swap1\n      pop\n        /* \"#utility.yul\":8414:8462   */\n      swap2\n      swap1\n      pop\n      jump\t// out\n        /* \"#utility.yul\":8468:8545   */\n    tag_151:\n      0x00\n        /* \"#utility.yul\":8534:8539   */\n      dup2\n        /* \"#utility.yul\":8523:8539   */\n      swap1\n      pop\n        /* \"#utility.yul\":8513:8545   */\n      swap2\n      swap1\n      pop\n      jump\t// out\n        /* \"#utility.yul\":8551:8705   */\n    tag_82:\n        /* \"#utility.yul\":8635:8641   */\n      dup3\n        /* \"#utility.yul\":8630:8633   */\n      dup2\n        /* \"#utility.yul\":8625:8628   */\n      dup4\n        /* \"#utility.yul\":8612:8642   */\n      calldatacopy\n        /* \"#utility.yul\":8697:8698   */\n      0x00\n        /* \"#utility.yul\":8688:8694   */\n      dup4\n        /* \"#utility.yul\":8683:8686   */\n      dup4\n        /* \"#utility.yul\":8679:8695   */\n      add\n        /* \"#utility.yul\":8672:8699   */\n      mstore\n        /* \"#utility.yul\":8602:8705   */\n      pop\n      pop\n      pop\n      jump\t// out\n        /* \"#utility.yul\":8711:9018   */\n    tag_131:\n        /* \"#utility.yul\":8779:8780   */\n      0x00\n        /* \"#utility.yul\":8789:8902   */\n    tag_181:\n        /* \"#utility.yul\":8803:8809   */\n      dup4\n        /* \"#utility.yul\":8800:8801   */\n      dup2\n        /* \"#utility.yul\":8797:8810   */\n      lt\n        /* \"#utility.yul\":8789:8902   */\n      iszero\n      tag_183\n      jumpi\n        /* \"#utility.yul\":8888:8889   */\n      dup1\n        /* \"#utility.yul\":8883:8886   */\n      dup3\n        /* \"#utility.yul\":8879:8890   */\n      add\n        /* \"#utility.yul\":8873:8891   */\n      mload\n        /* \"#utility.yul\":8869:8870   */\n      dup2\n        /* \"#utility.yul\":8864:8867   */\n      dup5\n        /* \"#utility.yul\":8860:8871   */\n      add\n        /* \"#utility.yul\":8853:8892   */\n      mstore\n        /* \"#utility.yul\":8825:8827   */\n      0x20\n        /* \"#utility.yul\":8822:8823   */\n      dup2\n        /* \"#utility.yul\":8818:8828   */\n      add\n        /* \"#utility.yul\":8813:8828   */\n      swap1\n      pop\n        /* \"#utility.yul\":8789:8902   */\n      jump(tag_181)\n    tag_183:\n        /* \"#utility.yul\":8920:8926   */\n      dup4\n        /* \"#utility.yul\":8917:8918   */\n      dup2\n        /* \"#utility.yul\":8914:8927   */\n      gt\n        /* \"#utility.yul\":8911:8913   */\n      iszero\n      tag_184\n      jumpi\n        /* \"#utility.yul\":9000:9001   */\n      0x00\n        /* \"#utility.yul\":8991:8997   */\n      dup5\n        /* \"#utility.yul\":8986:8989   */\n      dup5\n        /* \"#utility.yul\":8982:8998   */\n      add\n        /* \"#utility.yul\":8975:9002   */\n      mstore\n        /* \"#utility.yul\":8911:8913   */\n    tag_184:\n        /* \"#utility.yul\":8760:9018   */\n      pop\n      pop\n      pop\n      pop\n      jump\t// out\n        /* \"#utility.yul\":9024:9344   */\n    tag_27:\n      0x00\n        /* \"#utility.yul\":9105:9106   */\n      0x02\n        /* \"#utility.yul\":9099:9103   */\n      dup3\n        /* \"#utility.yul\":9095:9107   */\n      div\n        /* \"#utility.yul\":9085:9107   */\n      swap1\n      pop\n        /* \"#utility.yul\":9152:9153   */\n      0x01\n        /* \"#utility.yul\":9146:9150   */\n      dup3\n        /* \"#utility.yul\":9142:9154   */\n      and\n        /* \"#utility.yul\":9173:9191   */\n      dup1\n        /* \"#utility.yul\":9163:9165   */\n      tag_186\n      jumpi\n        /* \"#utility.yul\":9229:9233   */\n      0x7f\n        /* \"#utility.yul\":9221:9227   */\n      dup3\n        /* \"#utility.yul\":9217:9234   */\n      and\n        /* \"#utility.yul\":9207:9234   */\n      swap2\n      pop\n        /* \"#utility.yul\":9163:9165   */\n    tag_186:\n        /* \"#utility.yul\":9291:9293   */\n      0x20\n        /* \"#utility.yul\":9283:9289   */\n      dup3\n        /* \"#utility.yul\":9280:9294   */\n      lt\n        /* \"#utility.yul\":9260:9278   */\n      dup2\n        /* \"#utility.yul\":9257:9295   */\n      eq\n        /* \"#utility.yul\":9254:9256   */\n      iszero\n      tag_187\n      jumpi\n        /* \"#utility.yul\":9310:9328   */\n      tag_188\n      tag_189\n      jump\t// in\n    tag_188:\n        /* \"#utility.yul\":9254:9256   */\n    tag_187:\n        /* \"#utility.yul\":9075:9344   */\n      pop\n      swap2\n      swap1\n      pop\n      jump\t// out\n        /* \"#utility.yul\":9350:9583   */\n    tag_60:\n      0x00\n        /* \"#utility.yul\":9412:9436   */\n      tag_191\n        /* \"#utility.yul\":9430:9435   */\n      dup3\n        /* \"#utility.yul\":9412:9436   */\n      tag_151\n      jump\t// in\n    tag_191:\n        /* \"#utility.yul\":9403:9436   */\n      swap2\n      pop\n        /* \"#utility.yul\":9458:9524   */\n      0xffffffffffffffffffffffffffffffffffffffffffffffffffffffffffffffff\n        /* \"#utility.yul\":9451:9456   */\n      dup3\n        /* \"#utility.yul\":9448:9525   */\n      eq\n        /* \"#utility.yul\":9445:9447   */\n      iszero\n      tag_192\n      jumpi\n        /* \"#utility.yul\":9528:9546   */\n      tag_193\n      tag_194\n      jump\t// in\n    tag_193:\n        /* \"#utility.yul\":9445:9447   */\n    tag_192:\n        /* \"#utility.yul\":9575:9576   */\n      0x01\n        /* \"#utility.yul\":9568:9573   */\n      dup3\n        /* \"#utility.yul\":9564:9577   */\n      add\n        /* \"#utility.yul\":9557:9577   */\n      swap1\n      pop\n        /* \"#utility.yul\":9393:9583   */\n      swap2\n      swap1\n      pop\n      jump\t// out\n        /* \"#utility.yul\":9589:9769   */\n    tag_194:\n        /* \"#utility.yul\":9637:9714   */\n      0x4e487b7100000000000000000000000000000000000000000000000000000000\n        /* \"#utility.yul\":9634:9635   */\n      0x00\n        /* \"#utility.yul\":9627:9715   */\n      mstore\n        /* \"#utility.yul\":9734:9738   */\n      0x11\n        /* \"#utility.yul\":9731:9732   */\n      0x04\n        /* \"#utility.yul\":9724:9739   */\n      mstore\n        /* \"#utility.yul\":9758:9762   */\n      0x24\n        /* \"#utility.yul\":9755:9756   */\n      0x00\n        /* \"#utility.yul\":9748:9763   */\n      revert\n        /* \"#utility.yul\":9775:9955   */\n    tag_189:\n        /* \"#utility.yul\":9823:9900   */\n      0x4e487b7100000000000000000000000000000000000000000000000000000000\n        /* \"#utility.yul\":9820:9821   */\n      0x00\n        /* \"#utility.yul\":9813:9901   */\n      mstore\n        /* \"#utility.yul\":9920:9924   */\n      0x22\n        /* \"#utility.yul\":9917:9918   */\n      0x04\n        /* \"#utility.yul\":9910:9925   */\n      mstore\n        /* \"#utility.yul\":9944:9948   */\n      0x24\n        /* \"#utility.yul\":9941:9942   */\n      0x00\n        /* \"#utility.yul\":9934:9949   */\n      revert\n        /* \"#utility.yul\":9961:10141   */\n    tag_166:\n        /* \"#utility.yul\":10009:10086   */\n      0x4e487b7100000000000000000000000000000000000000000000000000000000\n        /* \"#utility.yul\":10006:10007   */\n      0x00\n        /* \"#utility.yul\":9999:10087   */\n      mstore\n        /* \"#utility.yul\":10106:10110   */\n      0x41\n        /* \"#utility.yul\":10103:10104   */\n      0x04\n        /* \"#utility.yul\":10096:10111   */\n      mstore\n        /* \"#utility.yul\":10130:10134   */\n      0x24\n        /* \"#utility.yul\":10127:10128   */\n      0x00\n        /* \"#utility.yul\":10120:10135   */\n      revert\n        /* \"#utility.yul\":10147:10249   */\n    tag_133:\n      0x00\n        /* \"#utility.yul\":10239:10241   */\n      0x1f\n        /* \"#utility.yul\":10235:10242   */\n      not\n        /* \"#utility.yul\":10230:10232   */\n      0x1f\n        /* \"#utility.yul\":10223:10228   */\n      dup4\n        /* \"#utility.yul\":10219:10233   */\n      add\n        /* \"#utility.yul\":10215:10243   */\n      and\n        /* \"#utility.yul\":10205:10243   */\n      swap1\n      pop\n        /* \"#utility.yul\":10195:10249   */\n      swap2\n      swap1\n      pop\n      jump\t// out\n        /* \"#utility.yul\":10255:10377   */\n    tag_90:\n        /* \"#utility.yul\":10328:10352   */\n      tag_200\n        /* \"#utility.yul\":10346:10351   */\n      dup2\n        /* \"#utility.yul\":10328:10352   */\n      tag_151\n      jump\t// in\n    tag_200:\n        /* \"#utility.yul\":10321:10326   */\n      dup2\n        /* \"#utility.yul\":10318:10353   */\n      eq\n        /* \"#utility.yul\":10308:10310   */\n      tag_201\n      jumpi\n        /* \"#utility.yul\":10367:10368   */\n      0x00\n        /* \"#utility.yul\":10364:10365   */\n      dup1\n        /* \"#utility.yul\":10357:10369   */\n      revert\n        /* \"#utility.yul\":10308:10310   */\n    tag_201:\n        /* \"#utility.yul\":10298:10377   */\n      pop\n      jump\t// out\n\n    auxdata: 0xa264697066735822122001a8ad274bd8babe3bda1030d5584752e874c4143de930addea5dc2d402fe31464736f6c63430008000033\n}\n",
				"bytecode": {
					"linkReferences": {},
					"object": "608060405234801561001057600080fd5b50610b4f806100206000396000f3fe608060405234801561001057600080fd5b506004361061004c5760003560e01c806306ead22e1461005157806346f81a871461008357806357de26a41461009f57806382ab890a146100bd575b600080fd5b61006b6004803603810190610066919061065a565b6100d9565b60405161007a9392919061086c565b60405180910390f35b61009d60048036038101906100989190610606565b6101a8565b005b6100a761023e565b6040516100b4919061084a565b60405180910390f35b6100d760048036038101906100d2919061065a565b610354565b005b600081815481106100e957600080fd5b906000526020600020906003020160009150905080600001805461010c906109e9565b80601f0160208091040260200160405190810160405280929190818152602001828054610138906109e9565b80156101855780601f1061015a57610100808354040283529160200191610185565b820191906000526020600020905b81548152906001019060200180831161016857829003601f168201915b5050505050908060010154908060020160009054906101000a900460ff16905083565b60006040518060600160405280848152602001838152602001600115158152509080600181540180825580915050600190039060005260206000209060030201600090919091909150600082015181600001908051906020019061020d9291906104e6565b506020820151816001015560408201518160020160006101000a81548160ff02191690831515021790555050505050565b60606000805480602002602001604051908101604052809291908181526020016000905b8282101561034b5783829060005260206000209060030201604051806060016040529081600082018054610295906109e9565b80601f01602080910402602001604051908101604052809291908181526020018280546102c1906109e9565b801561030e5780601f106102e35761010080835404028352916020019161030e565b820191906000526020600020905b8154815290600101906020018083116102f157829003601f168201915b50505050508152602001600182015481526020016002820160009054906101000a900460ff16151515158152505081526020019060010190610262565b50505050905090565b600061035f82610421565b90506000818154811061039b577f4e487b7100000000000000000000000000000000000000000000000000000000600052603260045260246000fd5b906000526020600020906003020160020160009054906101000a900460ff1615600082815481106103f5577f4e487b7100000000000000000000000000000000000000000000000000000000600052603260045260246000fd5b906000526020600020906003020160020160006101000a81548160ff0219169083151502179055505050565b600080600090505b6000805490508110156104a5578260008281548110610471577f4e487b7100000000000000000000000000000000000000000000000000000000600052603260045260246000fd5b906000526020600020906003020160010154141561049257809150506104e1565b808061049d90610a1b565b915050610429565b506040517f08c379a00000000000000000000000000000000000000000000000000000000081526004016104d8906108aa565b60405180910390fd5b919050565b8280546104f2906109e9565b90600052602060002090601f016020900481019282610514576000855561055b565b82601f1061052d57805160ff191683800117855561055b565b8280016001018555821561055b579182015b8281111561055a57825182559160200191906001019061053f565b5b509050610568919061056c565b5090565b5b8082111561058557600081600090555060010161056d565b5090565b600061059c610597846108fb565b6108ca565b9050828152602081018484840111156105b457600080fd5b6105bf8482856109a7565b509392505050565b600082601f8301126105d857600080fd5b81356105e8848260208601610589565b91505092915050565b60008135905061060081610b02565b92915050565b6000806040838503121561061957600080fd5b600083013567ffffffffffffffff81111561063357600080fd5b61063f858286016105c7565b9250506020610650858286016105f1565b9150509250929050565b60006020828403121561066c57600080fd5b600061067a848285016105f1565b91505092915050565b600061068f83836107dc565b905092915050565b60006106a28261093b565b6106ac818561095e565b9350836020820285016106be8561092b565b8060005b858110156106fa57848403895281516106db8582610683565b94506106e683610951565b925060208a019950506001810190506106c2565b50829750879550505050505092915050565b61071581610991565b82525050565b61072481610991565b82525050565b600061073582610946565b61073f818561096f565b935061074f8185602086016109b6565b61075881610af1565b840191505092915050565b600061076e82610946565b6107788185610980565b93506107888185602086016109b6565b61079181610af1565b840191505092915050565b60006107a9600e83610980565b91507f646f6573206e6f742065786973740000000000000000000000000000000000006000830152602082019050919050565b600060608301600083015184820360008601526107f9828261072a565b915050602083015161080e602086018261082c565b506040830151610821604086018261070c565b508091505092915050565b6108358161099d565b82525050565b6108448161099d565b82525050565b600060208201905081810360008301526108648184610697565b905092915050565b600060608201905081810360008301526108868186610763565b9050610895602083018561083b565b6108a2604083018461071b565b949350505050565b600060208201905081810360008301526108c38161079c565b9050919050565b6000604051905081810181811067ffffffffffffffff821117156108f1576108f0610ac2565b5b8060405250919050565b600067ffffffffffffffff82111561091657610915610ac2565b5b601f19601f8301169050602081019050919050565b6000819050602082019050919050565b600081519050919050565b600081519050919050565b6000602082019050919050565b600082825260208201905092915050565b600082825260208201905092915050565b600082825260208201905092915050565b60008115159050919050565b6000819050919050565b82818337600083830152505050565b60005b838110156109d45780820151818401526020810190506109b9565b838111156109e3576000848401525b50505050565b60006002820490506001821680610a0157607f821691505b60208210811415610a1557610a14610a93565b5b50919050565b6000610a268261099d565b91507fffffffffffffffffffffffffffffffffffffffffffffffffffffffffffffffff821415610a5957610a58610a64565b5b600182019050919050565b7f4e487b7100000000000000000000000000000000000000000000000000000000600052601160045260246000fd5b7f4e487b7100000000000000000000000000000000000000000000000000000000600052602260045260246000fd5b7f4e487b7100000000000000000000000000000000000000000000000000000000600052604160045260246000fd5b6000601f19601f8301169050919050565b610b0b8161099d565b8114610b1657600080fd5b5056fea264697066735822122001a8ad274bd8babe3bda1030d5584752e874c4143de930addea5dc2d402fe31464736f6c63430008000033",
					"opcodes": "PUSH1 0x80 PUSH1 0x40 MSTORE CALLVALUE DUP1 ISZERO PUSH2 0x10 JUMPI PUSH1 0x0 DUP1 REVERT JUMPDEST POP PUSH2 0xB4F DUP1 PUSH2 0x20 PUSH1 0x0 CODECOPY PUSH1 0x0 RETURN INVALID PUSH1 0x80 PUSH1 0x40 MSTORE CALLVALUE DUP1 ISZERO PUSH2 0x10 JUMPI PUSH1 0x0 DUP1 REVERT JUMPDEST POP PUSH1 0x4 CALLDATASIZE LT PUSH2 0x4C JUMPI PUSH1 0x0 CALLDATALOAD PUSH1 0xE0 SHR DUP1 PUSH4 0x6EAD22E EQ PUSH2 0x51 JUMPI DUP1 PUSH4 0x46F81A87 EQ PUSH2 0x83 JUMPI DUP1 PUSH4 0x57DE26A4 EQ PUSH2 0x9F JUMPI DUP1 PUSH4 0x82AB890A EQ PUSH2 0xBD JUMPI JUMPDEST PUSH1 0x0 DUP1 REVERT JUMPDEST PUSH2 0x6B PUSH1 0x4 DUP1 CALLDATASIZE SUB DUP2 ADD SWAP1 PUSH2 0x66 SWAP2 SWAP1 PUSH2 0x65A JUMP JUMPDEST PUSH2 0xD9 JUMP JUMPDEST PUSH1 0x40 MLOAD PUSH2 0x7A SWAP4 SWAP3 SWAP2 SWAP1 PUSH2 0x86C JUMP JUMPDEST PUSH1 0x40 MLOAD DUP1 SWAP2 SUB SWAP1 RETURN JUMPDEST PUSH2 0x9D PUSH1 0x4 DUP1 CALLDATASIZE SUB DUP2 ADD SWAP1 PUSH2 0x98 SWAP2 SWAP1 PUSH2 0x606 JUMP JUMPDEST PUSH2 0x1A8 JUMP JUMPDEST STOP JUMPDEST PUSH2 0xA7 PUSH2 0x23E JUMP JUMPDEST PUSH1 0x40 MLOAD PUSH2 0xB4 SWAP2 SWAP1 PUSH2 0x84A JUMP JUMPDEST PUSH1 0x40 MLOAD DUP1 SWAP2 SUB SWAP1 RETURN JUMPDEST PUSH2 0xD7 PUSH1 0x4 DUP1 CALLDATASIZE SUB DUP2 ADD SWAP1 PUSH2 0xD2 SWAP2 SWAP1 PUSH2 0x65A JUMP JUMPDEST PUSH2 0x354 JUMP JUMPDEST STOP JUMPDEST PUSH1 0x0 DUP2 DUP2 SLOAD DUP2 LT PUSH2 0xE9 JUMPI PUSH1 0x0 DUP1 REVERT JUMPDEST SWAP1 PUSH1 0x0 MSTORE PUSH1 0x20 PUSH1 0x0 KECCAK256 SWAP1 PUSH1 0x3 MUL ADD PUSH1 0x0 SWAP2 POP SWAP1 POP DUP1 PUSH1 0x0 ADD DUP1 SLOAD PUSH2 0x10C SWAP1 PUSH2 0x9E9 JUMP JUMPDEST DUP1 PUSH1 0x1F ADD PUSH1 0x20 DUP1 SWAP2 DIV MUL PUSH1 0x20 ADD PUSH1 0x40 MLOAD SWAP1 DUP2 ADD PUSH1 0x40 MSTORE DUP1 SWAP3 SWAP2 SWAP1 DUP2 DUP2 MSTORE PUSH1 0x20 ADD DUP3 DUP1 SLOAD PUSH2 0x138 SWAP1 PUSH2 0x9E9 JUMP JUMPDEST DUP1 ISZERO PUSH2 0x185 JUMPI DUP1 PUSH1 0x1F LT PUSH2 0x15A JUMPI PUSH2 0x100 DUP1 DUP4 SLOAD DIV MUL DUP4 MSTORE SWAP2 PUSH1 0x20 ADD SWAP2 PUSH2 0x185 JUMP JUMPDEST DUP3 ADD SWAP2 SWAP1 PUSH1 0x0 MSTORE PUSH1 0x20 PUSH1 0x0 KECCAK256 SWAP1 JUMPDEST DUP2 SLOAD DUP2 MSTORE SWAP1 PUSH1 0x1 ADD SWAP1 PUSH1 0x20 ADD DUP1 DUP4 GT PUSH2 0x168 JUMPI DUP3 SWAP1 SUB PUSH1 0x1F AND DUP3 ADD SWAP2 JUMPDEST POP POP POP POP POP SWAP1 DUP1 PUSH1 0x1 ADD SLOAD SWAP1 DUP1 PUSH1 0x2 ADD PUSH1 0x0 SWAP1 SLOAD SWAP1 PUSH2 0x100 EXP SWAP1 DIV PUSH1 0xFF AND SWAP1 POP DUP4 JUMP JUMPDEST PUSH1 0x0 PUSH1 0x40 MLOAD DUP1 PUSH1 0x60 ADD PUSH1 0x40 MSTORE DUP1 DUP5 DUP2 MSTORE PUSH1 0x20 ADD DUP4 DUP2 MSTORE PUSH1 0x20 ADD PUSH1 0x1 ISZERO ISZERO DUP2 MSTORE POP SWAP1 DUP1 PUSH1 0x1 DUP2 SLOAD ADD DUP1 DUP3 SSTORE DUP1 SWAP2 POP POP PUSH1 0x1 SWAP1 SUB SWAP1 PUSH1 0x0 MSTORE PUSH1 0x20 PUSH1 0x0 KECCAK256 SWAP1 PUSH1 0x3 MUL ADD PUSH1 0x0 SWAP1 SWAP2 SWAP1 SWAP2 SWAP1 SWAP2 POP PUSH1 0x0 DUP3 ADD MLOAD DUP2 PUSH1 0x0 ADD SWAP1 DUP1 MLOAD SWAP1 PUSH1 0x20 ADD SWAP1 PUSH2 0x20D SWAP3 SWAP2 SWAP1 PUSH2 0x4E6 JUMP JUMPDEST POP PUSH1 0x20 DUP3 ADD MLOAD DUP2 PUSH1 0x1 ADD SSTORE PUSH1 0x40 DUP3 ADD MLOAD DUP2 PUSH1 0x2 ADD PUSH1 0x0 PUSH2 0x100 EXP DUP2 SLOAD DUP2 PUSH1 0xFF MUL NOT AND SWAP1 DUP4 ISZERO ISZERO MUL OR SWAP1 SSTORE POP POP POP POP POP JUMP JUMPDEST PUSH1 0x60 PUSH1 0x0 DUP1 SLOAD DUP1 PUSH1 0x20 MUL PUSH1 0x20 ADD PUSH1 0x40 MLOAD SWAP1 DUP2 ADD PUSH1 0x40 MSTORE DUP1 SWAP3 SWAP2 SWAP1 DUP2 DUP2 MSTORE PUSH1 0x20 ADD PUSH1 0x0 SWAP1 JUMPDEST DUP3 DUP3 LT ISZERO PUSH2 0x34B JUMPI DUP4 DUP3 SWAP1 PUSH1 0x0 MSTORE PUSH1 0x20 PUSH1 0x0 KECCAK256 SWAP1 PUSH1 0x3 MUL ADD PUSH1 0x40 MLOAD DUP1 PUSH1 0x60 ADD PUSH1 0x40 MSTORE SWAP1 DUP2 PUSH1 0x0 DUP3 ADD DUP1 SLOAD PUSH2 0x295 SWAP1 PUSH2 0x9E9 JUMP JUMPDEST DUP1 PUSH1 0x1F ADD PUSH1 0x20 DUP1 SWAP2 DIV MUL PUSH1 0x20 ADD PUSH1 0x40 MLOAD SWAP1 DUP2 ADD PUSH1 0x40 MSTORE DUP1 SWAP3 SWAP2 SWAP1 DUP2 DUP2 MSTORE PUSH1 0x20 ADD DUP3 DUP1 SLOAD PUSH2 0x2C1 SWAP1 PUSH2 0x9E9 JUMP JUMPDEST DUP1 ISZERO PUSH2 0x30E JUMPI DUP1 PUSH1 0x1F LT PUSH2 0x2E3 JUMPI PUSH2 0x100 DUP1 DUP4 SLOAD DIV MUL DUP4 MSTORE SWAP2 PUSH1 0x20 ADD SWAP2 PUSH2 0x30E JUMP JUMPDEST DUP3 ADD SWAP2 SWAP1 PUSH1 0x0 MSTORE PUSH1 0x20 PUSH1 0x0 KECCAK256 SWAP1 JUMPDEST DUP2 SLOAD DUP2 MSTORE SWAP1 PUSH1 0x1 ADD SWAP1 PUSH1 0x20 ADD DUP1 DUP4 GT PUSH2 0x2F1 JUMPI DUP3 SWAP1 SUB PUSH1 0x1F AND DUP3 ADD SWAP2 JUMPDEST POP POP POP POP POP DUP2 MSTORE PUSH1 0x20 ADD PUSH1 0x1 DUP3 ADD SLOAD DUP2 MSTORE PUSH1 0x20 ADD PUSH1 0x2 DUP3 ADD PUSH1 0x0 SWAP1 SLOAD SWAP1 PUSH2 0x100 EXP SWAP1 DIV PUSH1 0xFF AND ISZERO ISZERO ISZERO ISZERO DUP2 MSTORE POP POP DUP2 MSTORE PUSH1 0x20 ADD SWAP1 PUSH1 0x1 ADD SWAP1 PUSH2 0x262 JUMP JUMPDEST POP POP POP POP SWAP1 POP SWAP1 JUMP JUMPDEST PUSH1 0x0 PUSH2 0x35F DUP3 PUSH2 0x421 JUMP JUMPDEST SWAP1 POP PUSH1 0x0 DUP2 DUP2 SLOAD DUP2 LT PUSH2 0x39B JUMPI PUSH32 0x4E487B7100000000000000000000000000000000000000000000000000000000 PUSH1 0x0 MSTORE PUSH1 0x32 PUSH1 0x4 MSTORE PUSH1 0x24 PUSH1 0x0 REVERT JUMPDEST SWAP1 PUSH1 0x0 MSTORE PUSH1 0x20 PUSH1 0x0 KECCAK256 SWAP1 PUSH1 0x3 MUL ADD PUSH1 0x2 ADD PUSH1 0x0 SWAP1 SLOAD SWAP1 PUSH2 0x100 EXP SWAP1 DIV PUSH1 0xFF AND ISZERO PUSH1 0x0 DUP3 DUP2 SLOAD DUP2 LT PUSH2 0x3F5 JUMPI PUSH32 0x4E487B7100000000000000000000000000000000000000000000000000000000 PUSH1 0x0 MSTORE PUSH1 0x32 PUSH1 0x4 MSTORE PUSH1 0x24 PUSH1 0x0 REVERT JUMPDEST SWAP1 PUSH1 0x0 MSTORE PUSH1 0x20 PUSH1 0x0 KECCAK256 SWAP1 PUSH1 0x3 MUL ADD PUSH1 0x2 ADD PUSH1 0x0 PUSH2 0x100 EXP DUP2 SLOAD DUP2 PUSH1 0xFF MUL NOT AND SWAP1 DUP4 ISZERO ISZERO MUL OR SWAP1 SSTORE POP POP POP JUMP JUMPDEST PUSH1 0x0 DUP1 PUSH1 0x0 SWAP1 POP JUMPDEST PUSH1 0x0 DUP1 SLOAD SWAP1 POP DUP2 LT ISZERO PUSH2 0x4A5 JUMPI DUP3 PUSH1 0x0 DUP3 DUP2 SLOAD DUP2 LT PUSH2 0x471 JUMPI PUSH32 0x4E487B7100000000000000000000000000000000000000000000000000000000 PUSH1 0x0 MSTORE PUSH1 0x32 PUSH1 0x4 MSTORE PUSH1 0x24 PUSH1 0x0 REVERT JUMPDEST SWAP1 PUSH1 0x0 MSTORE PUSH1 0x20 PUSH1 0x0 KECCAK256 SWAP1 PUSH1 0x3 MUL ADD PUSH1 0x1 ADD SLOAD EQ ISZERO PUSH2 0x492 JUMPI DUP1 SWAP2 POP POP PUSH2 0x4E1 JUMP JUMPDEST DUP1 DUP1 PUSH2 0x49D SWAP1 PUSH2 0xA1B JUMP JUMPDEST SWAP2 POP POP PUSH2 0x429 JUMP JUMPDEST POP PUSH1 0x40 MLOAD PUSH32 0x8C379A000000000000000000000000000000000000000000000000000000000 DUP2 MSTORE PUSH1 0x4 ADD PUSH2 0x4D8 SWAP1 PUSH2 0x8AA JUMP JUMPDEST PUSH1 0x40 MLOAD DUP1 SWAP2 SUB SWAP1 REVERT JUMPDEST SWAP2 SWAP1 POP JUMP JUMPDEST DUP3 DUP1 SLOAD PUSH2 0x4F2 SWAP1 PUSH2 0x9E9 JUMP JUMPDEST SWAP1 PUSH1 0x0 MSTORE PUSH1 0x20 PUSH1 0x0 KECCAK256 SWAP1 PUSH1 0x1F ADD PUSH1 0x20 SWAP1 DIV DUP2 ADD SWAP3 DUP3 PUSH2 0x514 JUMPI PUSH1 0x0 DUP6 SSTORE PUSH2 0x55B JUMP JUMPDEST DUP3 PUSH1 0x1F LT PUSH2 0x52D JUMPI DUP1 MLOAD PUSH1 0xFF NOT AND DUP4 DUP1 ADD OR DUP6 SSTORE PUSH2 0x55B JUMP JUMPDEST DUP3 DUP1 ADD PUSH1 0x1 ADD DUP6 SSTORE DUP3 ISZERO PUSH2 0x55B JUMPI SWAP2 DUP3 ADD JUMPDEST DUP3 DUP2 GT ISZERO PUSH2 0x55A JUMPI DUP3 MLOAD DUP3 SSTORE SWAP2 PUSH1 0x20 ADD SWAP2 SWAP1 PUSH1 0x1 ADD SWAP1 PUSH2 0x53F JUMP JUMPDEST JUMPDEST POP SWAP1 POP PUSH2 0x568 SWAP2 SWAP1 PUSH2 0x56C JUMP JUMPDEST POP SWAP1 JUMP JUMPDEST JUMPDEST DUP1 DUP3 GT ISZERO PUSH2 0x585 JUMPI PUSH1 0x0 DUP2 PUSH1 0x0 SWAP1 SSTORE POP PUSH1 0x1 ADD PUSH2 0x56D JUMP JUMPDEST POP SWAP1 JUMP JUMPDEST PUSH1 0x0 PUSH2 0x59C PUSH2 0x597 DUP5 PUSH2 0x8FB JUMP JUMPDEST PUSH2 0x8CA JUMP JUMPDEST SWAP1 POP DUP3 DUP2 MSTORE PUSH1 0x20 DUP2 ADD DUP5 DUP5 DUP5 ADD GT ISZERO PUSH2 0x5B4 JUMPI PUSH1 0x0 DUP1 REVERT JUMPDEST PUSH2 0x5BF DUP5 DUP3 DUP6 PUSH2 0x9A7 JUMP JUMPDEST POP SWAP4 SWAP3 POP POP POP JUMP JUMPDEST PUSH1 0x0 DUP3 PUSH1 0x1F DUP4 ADD SLT PUSH2 0x5D8 JUMPI PUSH1 0x0 DUP1 REVERT JUMPDEST DUP2 CALLDATALOAD PUSH2 0x5E8 DUP5 DUP3 PUSH1 0x20 DUP7 ADD PUSH2 0x589 JUMP JUMPDEST SWAP2 POP POP SWAP3 SWAP2 POP POP JUMP JUMPDEST PUSH1 0x0 DUP2 CALLDATALOAD SWAP1 POP PUSH2 0x600 DUP2 PUSH2 0xB02 JUMP JUMPDEST SWAP3 SWAP2 POP POP JUMP JUMPDEST PUSH1 0x0 DUP1 PUSH1 0x40 DUP4 DUP6 SUB SLT ISZERO PUSH2 0x619 JUMPI PUSH1 0x0 DUP1 REVERT JUMPDEST PUSH1 0x0 DUP4 ADD CALLDATALOAD PUSH8 0xFFFFFFFFFFFFFFFF DUP2 GT ISZERO PUSH2 0x633 JUMPI PUSH1 0x0 DUP1 REVERT JUMPDEST PUSH2 0x63F DUP6 DUP3 DUP7 ADD PUSH2 0x5C7 JUMP JUMPDEST SWAP3 POP POP PUSH1 0x20 PUSH2 0x650 DUP6 DUP3 DUP7 ADD PUSH2 0x5F1 JUMP JUMPDEST SWAP2 POP POP SWAP3 POP SWAP3 SWAP1 POP JUMP JUMPDEST PUSH1 0x0 PUSH1 0x20 DUP3 DUP5 SUB SLT ISZERO PUSH2 0x66C JUMPI PUSH1 0x0 DUP1 REVERT JUMPDEST PUSH1 0x0 PUSH2 0x67A DUP5 DUP3 DUP6 ADD PUSH2 0x5F1 JUMP JUMPDEST SWAP2 POP POP SWAP3 SWAP2 POP POP JUMP JUMPDEST PUSH1 0x0 PUSH2 0x68F DUP4 DUP4 PUSH2 0x7DC JUMP JUMPDEST SWAP1 POP SWAP3 SWAP2 POP POP JUMP JUMPDEST PUSH1 0x0 PUSH2 0x6A2 DUP3 PUSH2 0x93B JUMP JUMPDEST PUSH2 0x6AC DUP2 DUP6 PUSH2 0x95E JUMP JUMPDEST SWAP4 POP DUP4 PUSH1 0x20 DUP3 MUL DUP6 ADD PUSH2 0x6BE DUP6 PUSH2 0x92B JUMP JUMPDEST DUP1 PUSH1 0x0 JUMPDEST DUP6 DUP2 LT ISZERO PUSH2 0x6FA JUMPI DUP5 DUP5 SUB DUP10 MSTORE DUP2 MLOAD PUSH2 0x6DB DUP6 DUP3 PUSH2 0x683 JUMP JUMPDEST SWAP5 POP PUSH2 0x6E6 DUP4 PUSH2 0x951 JUMP JUMPDEST SWAP3 POP PUSH1 0x20 DUP11 ADD SWAP10 POP POP PUSH1 0x1 DUP2 ADD SWAP1 POP PUSH2 0x6C2 JUMP JUMPDEST POP DUP3 SWAP8 POP DUP8 SWAP6 POP POP POP POP POP POP SWAP3 SWAP2 POP POP JUMP JUMPDEST PUSH2 0x715 DUP2 PUSH2 0x991 JUMP JUMPDEST DUP3 MSTORE POP POP JUMP JUMPDEST PUSH2 0x724 DUP2 PUSH2 0x991 JUMP JUMPDEST DUP3 MSTORE POP POP JUMP JUMPDEST PUSH1 0x0 PUSH2 0x735 DUP3 PUSH2 0x946 JUMP JUMPDEST PUSH2 0x73F DUP2 DUP6 PUSH2 0x96F JUMP JUMPDEST SWAP4 POP PUSH2 0x74F DUP2 DUP6 PUSH1 0x20 DUP7 ADD PUSH2 0x9B6 JUMP JUMPDEST PUSH2 0x758 DUP2 PUSH2 0xAF1 JUMP JUMPDEST DUP5 ADD SWAP2 POP POP SWAP3 SWAP2 POP POP JUMP JUMPDEST PUSH1 0x0 PUSH2 0x76E DUP3 PUSH2 0x946 JUMP JUMPDEST PUSH2 0x778 DUP2 DUP6 PUSH2 0x980 JUMP JUMPDEST SWAP4 POP PUSH2 0x788 DUP2 DUP6 PUSH1 0x20 DUP7 ADD PUSH2 0x9B6 JUMP JUMPDEST PUSH2 0x791 DUP2 PUSH2 0xAF1 JUMP JUMPDEST DUP5 ADD SWAP2 POP POP SWAP3 SWAP2 POP POP JUMP JUMPDEST PUSH1 0x0 PUSH2 0x7A9 PUSH1 0xE DUP4 PUSH2 0x980 JUMP JUMPDEST SWAP2 POP PUSH32 0x646F6573206E6F74206578697374000000000000000000000000000000000000 PUSH1 0x0 DUP4 ADD MSTORE PUSH1 0x20 DUP3 ADD SWAP1 POP SWAP2 SWAP1 POP JUMP JUMPDEST PUSH1 0x0 PUSH1 0x60 DUP4 ADD PUSH1 0x0 DUP4 ADD MLOAD DUP5 DUP3 SUB PUSH1 0x0 DUP7 ADD MSTORE PUSH2 0x7F9 DUP3 DUP3 PUSH2 0x72A JUMP JUMPDEST SWAP2 POP POP PUSH1 0x20 DUP4 ADD MLOAD PUSH2 0x80E PUSH1 0x20 DUP7 ADD DUP3 PUSH2 0x82C JUMP JUMPDEST POP PUSH1 0x40 DUP4 ADD MLOAD PUSH2 0x821 PUSH1 0x40 DUP7 ADD DUP3 PUSH2 0x70C JUMP JUMPDEST POP DUP1 SWAP2 POP POP SWAP3 SWAP2 POP POP JUMP JUMPDEST PUSH2 0x835 DUP2 PUSH2 0x99D JUMP JUMPDEST DUP3 MSTORE POP POP JUMP JUMPDEST PUSH2 0x844 DUP2 PUSH2 0x99D JUMP JUMPDEST DUP3 MSTORE POP POP JUMP JUMPDEST PUSH1 0x0 PUSH1 0x20 DUP3 ADD SWAP1 POP DUP2 DUP2 SUB PUSH1 0x0 DUP4 ADD MSTORE PUSH2 0x864 DUP2 DUP5 PUSH2 0x697 JUMP JUMPDEST SWAP1 POP SWAP3 SWAP2 POP POP JUMP JUMPDEST PUSH1 0x0 PUSH1 0x60 DUP3 ADD SWAP1 POP DUP2 DUP2 SUB PUSH1 0x0 DUP4 ADD MSTORE PUSH2 0x886 DUP2 DUP7 PUSH2 0x763 JUMP JUMPDEST SWAP1 POP PUSH2 0x895 PUSH1 0x20 DUP4 ADD DUP6 PUSH2 0x83B JUMP JUMPDEST PUSH2 0x8A2 PUSH1 0x40 DUP4 ADD DUP5 PUSH2 0x71B JUMP JUMPDEST SWAP5 SWAP4 POP POP POP POP JUMP JUMPDEST PUSH1 0x0 PUSH1 0x20 DUP3 ADD SWAP1 POP DUP2 DUP2 SUB PUSH1 0x0 DUP4 ADD MSTORE PUSH2 0x8C3 DUP2 PUSH2 0x79C JUMP JUMPDEST SWAP1 POP SWAP2 SWAP1 POP JUMP JUMPDEST PUSH1 0x0 PUSH1 0x40 MLOAD SWAP1 POP DUP2 DUP2 ADD DUP2 DUP2 LT PUSH8 0xFFFFFFFFFFFFFFFF DUP3 GT OR ISZERO PUSH2 0x8F1 JUMPI PUSH2 0x8F0 PUSH2 0xAC2 JUMP JUMPDEST JUMPDEST DUP1 PUSH1 0x40 MSTORE POP SWAP2 SWAP1 POP JUMP JUMPDEST PUSH1 0x0 PUSH8 0xFFFFFFFFFFFFFFFF DUP3 GT ISZERO PUSH2 0x916 JUMPI PUSH2 0x915 PUSH2 0xAC2 JUMP JUMPDEST JUMPDEST PUSH1 0x1F NOT PUSH1 0x1F DUP4 ADD AND SWAP1 POP PUSH1 0x20 DUP2 ADD SWAP1 POP SWAP2 SWAP1 POP JUMP JUMPDEST PUSH1 0x0 DUP2 SWAP1 POP PUSH1 0x20 DUP3 ADD SWAP1 POP SWAP2 SWAP1 POP JUMP JUMPDEST PUSH1 0x0 DUP2 MLOAD SWAP1 POP SWAP2 SWAP1 POP JUMP JUMPDEST PUSH1 0x0 DUP2 MLOAD SWAP1 POP SWAP2 SWAP1 POP JUMP JUMPDEST PUSH1 0x0 PUSH1 0x20 DUP3 ADD SWAP1 POP SWAP2 SWAP1 POP JUMP JUMPDEST PUSH1 0x0 DUP3 DUP3 MSTORE PUSH1 0x20 DUP3 ADD SWAP1 POP SWAP3 SWAP2 POP POP JUMP JUMPDEST PUSH1 0x0 DUP3 DUP3 MSTORE PUSH1 0x20 DUP3 ADD SWAP1 POP SWAP3 SWAP2 POP POP JUMP JUMPDEST PUSH1 0x0 DUP3 DUP3 MSTORE PUSH1 0x20 DUP3 ADD SWAP1 POP SWAP3 SWAP2 POP POP JUMP JUMPDEST PUSH1 0x0 DUP2 ISZERO ISZERO SWAP1 POP SWAP2 SWAP1 POP JUMP JUMPDEST PUSH1 0x0 DUP2 SWAP1 POP SWAP2 SWAP1 POP JUMP JUMPDEST DUP3 DUP2 DUP4 CALLDATACOPY PUSH1 0x0 DUP4 DUP4 ADD MSTORE POP POP POP JUMP JUMPDEST PUSH1 0x0 JUMPDEST DUP4 DUP2 LT ISZERO PUSH2 0x9D4 JUMPI DUP1 DUP3 ADD MLOAD DUP2 DUP5 ADD MSTORE PUSH1 0x20 DUP2 ADD SWAP1 POP PUSH2 0x9B9 JUMP JUMPDEST DUP4 DUP2 GT ISZERO PUSH2 0x9E3 JUMPI PUSH1 0x0 DUP5 DUP5 ADD MSTORE JUMPDEST POP POP POP POP JUMP JUMPDEST PUSH1 0x0 PUSH1 0x2 DUP3 DIV SWAP1 POP PUSH1 0x1 DUP3 AND DUP1 PUSH2 0xA01 JUMPI PUSH1 0x7F DUP3 AND SWAP2 POP JUMPDEST PUSH1 0x20 DUP3 LT DUP2 EQ ISZERO PUSH2 0xA15 JUMPI PUSH2 0xA14 PUSH2 0xA93 JUMP JUMPDEST JUMPDEST POP SWAP2 SWAP1 POP JUMP JUMPDEST PUSH1 0x0 PUSH2 0xA26 DUP3 PUSH2 0x99D JUMP JUMPDEST SWAP2 POP PUSH32 0xFFFFFFFFFFFFFFFFFFFFFFFFFFFFFFFFFFFFFFFFFFFFFFFFFFFFFFFFFFFFFFFF DUP3 EQ ISZERO PUSH2 0xA59 JUMPI PUSH2 0xA58 PUSH2 0xA64 JUMP JUMPDEST JUMPDEST PUSH1 0x1 DUP3 ADD SWAP1 POP SWAP2 SWAP1 POP JUMP JUMPDEST PUSH32 0x4E487B7100000000000000000000000000000000000000000000000000000000 PUSH1 0x0 MSTORE PUSH1 0x11 PUSH1 0x4 MSTORE PUSH1 0x24 PUSH1 0x0 REVERT JUMPDEST PUSH32 0x4E487B7100000000000000000000000000000000000000000000000000000000 PUSH1 0x0 MSTORE PUSH1 0x22 PUSH1 0x4 MSTORE PUSH1 0x24 PUSH1 0x0 REVERT JUMPDEST PUSH32 0x4E487B7100000000000000000000000000000000000000000000000000000000 PUSH1 0x0 MSTORE PUSH1 0x41 PUSH1 0x4 MSTORE PUSH1 0x24 PUSH1 0x0 REVERT JUMPDEST PUSH1 0x0 PUSH1 0x1F NOT PUSH1 0x1F DUP4 ADD AND SWAP1 POP SWAP2 SWAP1 POP JUMP JUMPDEST PUSH2 0xB0B DUP2 PUSH2 0x99D JUMP JUMPDEST DUP2 EQ PUSH2 0xB16 JUMPI PUSH1 0x0 DUP1 REVERT JUMPDEST POP JUMP INVALID LOG2 PUSH5 0x6970667358 0x22 SLT KECCAK256 ADD 0xA8 0xAD 0x27 0x4B 0xD8 0xBA 0xBE EXTCODESIZE 0xDA LT ADDRESS 0xD5 PC SELFBALANCE MSTORE 0xE8 PUSH21 0xC4143DE930ADDEA5DC2D402FE31464736F6C634300 ADDMOD STOP STOP CALLER "
				},
				"gasEstimates": {
					"creation": {
						"codeDepositCost": "579000",
						"executionCost": "613",
						"totalCost": "579613"
					},
					"external": {
						"create(string,uint256)": "infinite",
						"read()": "infinite",
						"students(uint256)": "infinite",
						"update(uint256)": "infinite"
					},
					"internal": {
						"find(uint256)": "infinite"
					}
				},
				"methodIdentifiers": {
					"create(string,uint256)": "46f81a87",
					"read()": "57de26a4",
					"students(uint256)": "06ead22e",
					"update(uint256)": "82ab890a"
				}
			},
			"storageLayout": {
				"storage": [
					{
						"astId": 12,
						"contract": "contracts/Arrays.sol:Arrays",
						"label": "students",
						"offset": 0,
						"slot": "0",
						"type": "t_array(t_struct(Item)8_storage)dyn_storage"
					}
				],
				"types": {
					"t_array(t_struct(Item)8_storage)dyn_storage": {
						"base": "t_struct(Item)8_storage",
						"encoding": "dynamic_array",
						"label": "struct Arrays.Item[]",
						"numberOfBytes": "32"
					},
					"t_bool": {
						"encoding": "inplace",
						"label": "bool",
						"numberOfBytes": "1"
					},
					"t_string_storage": {
						"encoding": "bytes",
						"label": "string",
						"numberOfBytes": "32"
					},
					"t_struct(Item)8_storage": {
						"encoding": "inplace",
						"label": "struct Arrays.Item",
						"members": [
							{
								"astId": 3,
								"contract": "contracts/Arrays.sol:Arrays",
								"label": "name",
								"offset": 0,
								"slot": "0",
								"type": "t_string_storage"
							},
							{
								"astId": 5,
								"contract": "contracts/Arrays.sol:Arrays",
								"label": "id",
								"offset": 0,
								"slot": "1",
								"type": "t_uint256"
							},
							{
								"astId": 7,
								"contract": "contracts/Arrays.sol:Arrays",
								"label": "verify",
								"offset": 0,
								"slot": "2",
								"type": "t_bool"
							}
						],
						"numberOfBytes": "96"
					},
					"t_uint256": {
						"encoding": "inplace",
						"label": "uint256",
						"numberOfBytes": "32"
					}
				}
			},
			"userdoc": {
				"kind": "user",
				"methods": {},
				"version": 1
			}
		}
	}
}