{
	"contracts/Map.sol": {
		"Map": {
			"abi": [
				{
					"inputs": [
						{
							"internalType": "address",
							"name": "",
							"type": "address"
						}
					],
					"name": "amount",
					"outputs": [
						{
							"internalType": "uint256",
							"name": "",
							"type": "uint256"
						}
					],
					"stateMutability": "view",
					"type": "function"
				},
				{
					"inputs": [],
					"name": "get",
					"outputs": [
						{
							"internalType": "uint256",
							"name": "",
							"type": "uint256"
						}
					],
					"stateMutability": "view",
					"type": "function"
				},
				{
					"inputs": [],
					"name": "remove",
					"outputs": [],
					"stateMutability": "nonpayable",
					"type": "function"
				},
				{
					"inputs": [
						{
							"internalType": "uint256",
							"name": "_amount",
							"type": "uint256"
						}
					],
					"name": "set",
					"outputs": [],
					"stateMutability": "nonpayable",
					"type": "function"
				},
				{
					"inputs": [
						{
							"internalType": "uint256",
							"name": "_amount",
							"type": "uint256"
						}
					],
					"name": "update",
					"outputs": [],
					"stateMutability": "nonpayable",
					"type": "function"
				}
			],
			"devdoc": {
				"kind": "dev",
				"methods": {},
				"version": 1
			},
			"evm": {
				"assembly": "    /* \"contracts/Map.sol\":68:500  contract Map{\r... */\n  mstore(0x40, 0x80)\n  callvalue\n  dup1\n  iszero\n  tag_1\n  jumpi\n  0x00\n  dup1\n  revert\ntag_1:\n  pop\n  dataSize(sub_0)\n  dup1\n  dataOffset(sub_0)\n  0x00\n  codecopy\n  0x00\n  return\nstop\n\nsub_0: assembly {\n        /* \"contracts/Map.sol\":68:500  contract Map{\r... */\n      mstore(0x40, 0x80)\n      callvalue\n      dup1\n      iszero\n      tag_1\n      jumpi\n      0x00\n      dup1\n      revert\n    tag_1:\n      pop\n      jumpi(tag_2, lt(calldatasize, 0x04))\n      shr(0xe0, calldataload(0x00))\n      dup1\n      0x60fe47b1\n      eq\n      tag_3\n      jumpi\n      dup1\n      0x6d4ce63c\n      eq\n      tag_4\n      jumpi\n      dup1\n      0x82ab890a\n      eq\n      tag_5\n      jumpi\n      dup1\n      0xa7f43779\n      eq\n      tag_6\n      jumpi\n      dup1\n      0xb9f0bf66\n      eq\n      tag_7\n      jumpi\n    tag_2:\n      0x00\n      dup1\n      revert\n        /* \"contracts/Map.sol\":139:229  function set(uint256 _amount) public {\r... */\n    tag_3:\n      tag_8\n      0x04\n      dup1\n      calldatasize\n      sub\n      dup2\n      add\n      swap1\n      tag_9\n      swap2\n      swap1\n      tag_10\n      jump\t// in\n    tag_9:\n      tag_11\n      jump\t// in\n    tag_8:\n      stop\n        /* \"contracts/Map.sol\":329:417  function get() public view returns (uint256){\r... */\n    tag_4:\n      tag_12\n      tag_13\n      jump\t// in\n    tag_12:\n      mload(0x40)\n      tag_14\n      swap2\n      swap1\n      tag_15\n      jump\t// in\n    tag_14:\n      mload(0x40)\n      dup1\n      swap2\n      sub\n      swap1\n      return\n        /* \"contracts/Map.sol\":235:321  function update(uint256 _amount) public {\r... */\n    tag_5:\n      tag_16\n      0x04\n      dup1\n      calldatasize\n      sub\n      dup2\n      add\n      swap1\n      tag_17\n      swap2\n      swap1\n      tag_10\n      jump\t// in\n    tag_17:\n      tag_18\n      jump\t// in\n    tag_16:\n      stop\n        /* \"contracts/Map.sol\":425:495  function remove () public {\r... */\n    tag_6:\n      tag_19\n      tag_20\n      jump\t// in\n    tag_19:\n      stop\n        /* \"contracts/Map.sol\":89:130  mapping(address => uint256) public amount */\n    tag_7:\n      tag_21\n      0x04\n      dup1\n      calldatasize\n      sub\n      dup2\n      add\n      swap1\n      tag_22\n      swap2\n      swap1\n      tag_23\n      jump\t// in\n    tag_22:\n      tag_24\n      jump\t// in\n    tag_21:\n      mload(0x40)\n      tag_25\n      swap2\n      swap1\n      tag_15\n      jump\t// in\n    tag_25:\n      mload(0x40)\n      dup1\n      swap2\n      sub\n      swap1\n      return\n        /* \"contracts/Map.sol\":139:229  function set(uint256 _amount) public {\r... */\n    tag_11:\n        /* \"contracts/Map.sol\":208:215  _amount */\n      dup1\n        /* \"contracts/Map.sol\":187:193  amount */\n      0x00\n        /* \"contracts/Map.sol\":187:205  amount[msg.sender] */\n      dup1\n        /* \"contracts/Map.sol\":194:204  msg.sender */\n      caller\n        /* \"contracts/Map.sol\":187:205  amount[msg.sender] */\n      0xffffffffffffffffffffffffffffffffffffffff\n      and\n      0xffffffffffffffffffffffffffffffffffffffff\n      and\n      dup2\n      mstore\n      0x20\n      add\n      swap1\n      dup2\n      mstore\n      0x20\n      add\n      0x00\n      keccak256\n        /* \"contracts/Map.sol\":187:215  amount[msg.sender] = _amount */\n      dup2\n      swap1\n      sstore\n      pop\n        /* \"contracts/Map.sol\":139:229  function set(uint256 _amount) public {\r... */\n      pop\n      jump\t// out\n        /* \"contracts/Map.sol\":329:417  function get() public view returns (uint256){\r... */\n    tag_13:\n        /* \"contracts/Map.sol\":365:372  uint256 */\n      0x00\n        /* \"contracts/Map.sol\":391:397  amount */\n      dup1\n        /* \"contracts/Map.sol\":391:409  amount[msg.sender] */\n      0x00\n        /* \"contracts/Map.sol\":398:408  msg.sender */\n      caller\n        /* \"contracts/Map.sol\":391:409  amount[msg.sender] */\n      0xffffffffffffffffffffffffffffffffffffffff\n      and\n      0xffffffffffffffffffffffffffffffffffffffff\n      and\n      dup2\n      mstore\n      0x20\n      add\n      swap1\n      dup2\n      mstore\n      0x20\n      add\n      0x00\n      keccak256\n      sload\n        /* \"contracts/Map.sol\":384:409  return amount[msg.sender] */\n      swap1\n      pop\n        /* \"contracts/Map.sol\":329:417  function get() public view returns (uint256){\r... */\n      swap1\n      jump\t// out\n        /* \"contracts/Map.sol\":235:321  function update(uint256 _amount) public {\r... */\n    tag_18:\n        /* \"contracts/Map.sol\":306:313  _amount */\n      dup1\n        /* \"contracts/Map.sol\":286:292  amount */\n      0x00\n        /* \"contracts/Map.sol\":286:304  amount[msg.sender] */\n      dup1\n        /* \"contracts/Map.sol\":293:303  msg.sender */\n      caller\n        /* \"contracts/Map.sol\":286:304  amount[msg.sender] */\n      0xffffffffffffffffffffffffffffffffffffffff\n      and\n      0xffffffffffffffffffffffffffffffffffffffff\n      and\n      dup2\n      mstore\n      0x20\n      add\n      swap1\n      dup2\n      mstore\n      0x20\n      add\n      0x00\n      keccak256\n        /* \"contracts/Map.sol\":286:313  amount[msg.sender]= _amount */\n      dup2\n      swap1\n      sstore\n      pop\n        /* \"contracts/Map.sol\":235:321  function update(uint256 _amount) public {\r... */\n      pop\n      jump\t// out\n        /* \"contracts/Map.sol\":425:495  function remove () public {\r... */\n    tag_20:\n        /* \"contracts/Map.sol\":469:475  amount */\n      0x00\n        /* \"contracts/Map.sol\":469:487  amount[msg.sender] */\n      dup1\n        /* \"contracts/Map.sol\":476:486  msg.sender */\n      caller\n        /* \"contracts/Map.sol\":469:487  amount[msg.sender] */\n      0xffffffffffffffffffffffffffffffffffffffff\n      and\n      0xffffffffffffffffffffffffffffffffffffffff\n      and\n      dup2\n      mstore\n      0x20\n      add\n      swap1\n      dup2\n      mstore\n      0x20\n      add\n      0x00\n      keccak256\n        /* \"contracts/Map.sol\":462:487  delete amount[msg.sender] */\n      0x00\n      swap1\n      sstore\n        /* \"contracts/Map.sol\":425:495  function remove () public {\r... */\n      jump\t// out\n        /* \"contracts/Map.sol\":89:130  mapping(address => uint256) public amount */\n    tag_24:\n      mstore(0x20, 0x00)\n      dup1\n      0x00\n      mstore\n      keccak256(0x00, 0x40)\n      0x00\n      swap2\n      pop\n      swap1\n      pop\n      sload\n      dup2\n      jump\t// out\n        /* \"#utility.yul\":7:146   */\n    tag_31:\n      0x00\n        /* \"#utility.yul\":91:97   */\n      dup2\n        /* \"#utility.yul\":78:98   */\n      calldataload\n        /* \"#utility.yul\":69:98   */\n      swap1\n      pop\n        /* \"#utility.yul\":107:140   */\n      tag_33\n        /* \"#utility.yul\":134:139   */\n      dup2\n        /* \"#utility.yul\":107:140   */\n      tag_34\n      jump\t// in\n    tag_33:\n        /* \"#utility.yul\":59:146   */\n      swap3\n      swap2\n      pop\n      pop\n      jump\t// out\n        /* \"#utility.yul\":152:291   */\n    tag_35:\n      0x00\n        /* \"#utility.yul\":236:242   */\n      dup2\n        /* \"#utility.yul\":223:243   */\n      calldataload\n        /* \"#utility.yul\":214:243   */\n      swap1\n      pop\n        /* \"#utility.yul\":252:285   */\n      tag_37\n        /* \"#utility.yul\":279:284   */\n      dup2\n        /* \"#utility.yul\":252:285   */\n      tag_38\n      jump\t// in\n    tag_37:\n        /* \"#utility.yul\":204:291   */\n      swap3\n      swap2\n      pop\n      pop\n      jump\t// out\n        /* \"#utility.yul\":297:559   */\n    tag_23:\n      0x00\n        /* \"#utility.yul\":405:407   */\n      0x20\n        /* \"#utility.yul\":393:402   */\n      dup3\n        /* \"#utility.yul\":384:391   */\n      dup5\n        /* \"#utility.yul\":380:403   */\n      sub\n        /* \"#utility.yul\":376:408   */\n      slt\n        /* \"#utility.yul\":373:375   */\n      iszero\n      tag_40\n      jumpi\n        /* \"#utility.yul\":421:422   */\n      0x00\n        /* \"#utility.yul\":418:419   */\n      dup1\n        /* \"#utility.yul\":411:423   */\n      revert\n        /* \"#utility.yul\":373:375   */\n    tag_40:\n        /* \"#utility.yul\":464:465   */\n      0x00\n        /* \"#utility.yul\":489:542   */\n      tag_41\n        /* \"#utility.yul\":534:541   */\n      dup5\n        /* \"#utility.yul\":525:531   */\n      dup3\n        /* \"#utility.yul\":514:523   */\n      dup6\n        /* \"#utility.yul\":510:532   */\n      add\n        /* \"#utility.yul\":489:542   */\n      tag_31\n      jump\t// in\n    tag_41:\n        /* \"#utility.yul\":479:542   */\n      swap2\n      pop\n        /* \"#utility.yul\":435:552   */\n      pop\n        /* \"#utility.yul\":363:559   */\n      swap3\n      swap2\n      pop\n      pop\n      jump\t// out\n        /* \"#utility.yul\":565:827   */\n    tag_10:\n      0x00\n        /* \"#utility.yul\":673:675   */\n      0x20\n        /* \"#utility.yul\":661:670   */\n      dup3\n        /* \"#utility.yul\":652:659   */\n      dup5\n        /* \"#utility.yul\":648:671   */\n      sub\n        /* \"#utility.yul\":644:676   */\n      slt\n        /* \"#utility.yul\":641:643   */\n      iszero\n      tag_43\n      jumpi\n        /* \"#utility.yul\":689:690   */\n      0x00\n        /* \"#utility.yul\":686:687   */\n      dup1\n        /* \"#utility.yul\":679:691   */\n      revert\n        /* \"#utility.yul\":641:643   */\n    tag_43:\n        /* \"#utility.yul\":732:733   */\n      0x00\n        /* \"#utility.yul\":757:810   */\n      tag_44\n        /* \"#utility.yul\":802:809   */\n      dup5\n        /* \"#utility.yul\":793:799   */\n      dup3\n        /* \"#utility.yul\":782:791   */\n      dup6\n        /* \"#utility.yul\":778:800   */\n      add\n        /* \"#utility.yul\":757:810   */\n      tag_35\n      jump\t// in\n    tag_44:\n        /* \"#utility.yul\":747:810   */\n      swap2\n      pop\n        /* \"#utility.yul\":703:820   */\n      pop\n        /* \"#utility.yul\":631:827   */\n      swap3\n      swap2\n      pop\n      pop\n      jump\t// out\n        /* \"#utility.yul\":833:951   */\n    tag_45:\n        /* \"#utility.yul\":920:944   */\n      tag_47\n        /* \"#utility.yul\":938:943   */\n      dup2\n        /* \"#utility.yul\":920:944   */\n      tag_48\n      jump\t// in\n    tag_47:\n        /* \"#utility.yul\":915:918   */\n      dup3\n        /* \"#utility.yul\":908:945   */\n      mstore\n        /* \"#utility.yul\":898:951   */\n      pop\n      pop\n      jump\t// out\n        /* \"#utility.yul\":957:1179   */\n    tag_15:\n      0x00\n        /* \"#utility.yul\":1088:1090   */\n      0x20\n        /* \"#utility.yul\":1077:1086   */\n      dup3\n        /* \"#utility.yul\":1073:1091   */\n      add\n        /* \"#utility.yul\":1065:1091   */\n      swap1\n      pop\n        /* \"#utility.yul\":1101:1172   */\n      tag_50\n        /* \"#utility.yul\":1169:1170   */\n      0x00\n        /* \"#utility.yul\":1158:1167   */\n      dup4\n        /* \"#utility.yul\":1154:1171   */\n      add\n        /* \"#utility.yul\":1145:1151   */\n      dup5\n        /* \"#utility.yul\":1101:1172   */\n      tag_45\n      jump\t// in\n    tag_50:\n        /* \"#utility.yul\":1055:1179   */\n      swap3\n      swap2\n      pop\n      pop\n      jump\t// out\n        /* \"#utility.yul\":1185:1281   */\n    tag_51:\n      0x00\n        /* \"#utility.yul\":1251:1275   */\n      tag_53\n        /* \"#utility.yul\":1269:1274   */\n      dup3\n        /* \"#utility.yul\":1251:1275   */\n      tag_54\n      jump\t// in\n    tag_53:\n        /* \"#utility.yul\":1240:1275   */\n      swap1\n      pop\n        /* \"#utility.yul\":1230:1281   */\n      swap2\n      swap1\n      pop\n      jump\t// out\n        /* \"#utility.yul\":1287:1413   */\n    tag_54:\n      0x00\n        /* \"#utility.yul\":1364:1406   */\n      0xffffffffffffffffffffffffffffffffffffffff\n        /* \"#utility.yul\":1357:1362   */\n      dup3\n        /* \"#utility.yul\":1353:1407   */\n      and\n        /* \"#utility.yul\":1342:1407   */\n      swap1\n      pop\n        /* \"#utility.yul\":1332:1413   */\n      swap2\n      swap1\n      pop\n      jump\t// out\n        /* \"#utility.yul\":1419:1496   */\n    tag_48:\n      0x00\n        /* \"#utility.yul\":1485:1490   */\n      dup2\n        /* \"#utility.yul\":1474:1490   */\n      swap1\n      pop\n        /* \"#utility.yul\":1464:1496   */\n      swap2\n      swap1\n      pop\n      jump\t// out\n        /* \"#utility.yul\":1502:1624   */\n    tag_34:\n        /* \"#utility.yul\":1575:1599   */\n      tag_58\n        /* \"#utility.yul\":1593:1598   */\n      dup2\n        /* \"#utility.yul\":1575:1599   */\n      tag_51\n      jump\t// in\n    tag_58:\n        /* \"#utility.yul\":1568:1573   */\n      dup2\n        /* \"#utility.yul\":1565:1600   */\n      eq\n        /* \"#utility.yul\":1555:1557   */\n      tag_59\n      jumpi\n        /* \"#utility.yul\":1614:1615   */\n      0x00\n        /* \"#utility.yul\":1611:1612   */\n      dup1\n        /* \"#utility.yul\":1604:1616   */\n      revert\n        /* \"#utility.yul\":1555:1557   */\n    tag_59:\n        /* \"#utility.yul\":1545:1624   */\n      pop\n      jump\t// out\n        /* \"#utility.yul\":1630:1752   */\n    tag_38:\n        /* \"#utility.yul\":1703:1727   */\n      tag_61\n        /* \"#utility.yul\":1721:1726   */\n      dup2\n        /* \"#utility.yul\":1703:1727   */\n      tag_48\n      jump\t// in\n    tag_61:\n        /* \"#utility.yul\":1696:1701   */\n      dup2\n        /* \"#utility.yul\":1693:1728   */\n      eq\n        /* \"#utility.yul\":1683:1685   */\n      tag_62\n      jumpi\n        /* \"#utility.yul\":1742:1743   */\n      0x00\n        /* \"#utility.yul\":1739:1740   */\n      dup1\n        /* \"#utility.yul\":1732:1744   */\n      revert\n        /* \"#utility.yul\":1683:1685   */\n    tag_62:\n        /* \"#utility.yul\":1673:1752   */\n      pop\n      jump\t// out\n\n    auxdata: 0xa2646970667358221220b5ef2708f6648d10134b8b3827b3750d5c5fd7abbfbf45f2fd0460f5211d514b64736f6c63430008000033\n}\n",
				"bytecode": {
					"linkReferences": {},
					"object": "608060405234801561001057600080fd5b50610360806100206000396000f3fe608060405234801561001057600080fd5b50600436106100575760003560e01c806360fe47b11461005c5780636d4ce63c1461007857806382ab890a14610096578063a7f43779146100b2578063b9f0bf66146100bc575b600080fd5b6100766004803603810190610071919061026d565b6100ec565b005b610080610132565b60405161008d91906102a5565b60405180910390f35b6100b060048036038101906100ab919061026d565b610178565b005b6100ba6101be565b005b6100d660048036038101906100d19190610244565b610202565b6040516100e391906102a5565b60405180910390f35b806000803373ffffffffffffffffffffffffffffffffffffffff1673ffffffffffffffffffffffffffffffffffffffff1681526020019081526020016000208190555050565b60008060003373ffffffffffffffffffffffffffffffffffffffff1673ffffffffffffffffffffffffffffffffffffffff16815260200190815260200160002054905090565b806000803373ffffffffffffffffffffffffffffffffffffffff1673ffffffffffffffffffffffffffffffffffffffff1681526020019081526020016000208190555050565b6000803373ffffffffffffffffffffffffffffffffffffffff1673ffffffffffffffffffffffffffffffffffffffff16815260200190815260200160002060009055565b60006020528060005260406000206000915090505481565b600081359050610229816102fc565b92915050565b60008135905061023e81610313565b92915050565b60006020828403121561025657600080fd5b60006102648482850161021a565b91505092915050565b60006020828403121561027f57600080fd5b600061028d8482850161022f565b91505092915050565b61029f816102f2565b82525050565b60006020820190506102ba6000830184610296565b92915050565b60006102cb826102d2565b9050919050565b600073ffffffffffffffffffffffffffffffffffffffff82169050919050565b6000819050919050565b610305816102c0565b811461031057600080fd5b50565b61031c816102f2565b811461032757600080fd5b5056fea2646970667358221220b5ef2708f6648d10134b8b3827b3750d5c5fd7abbfbf45f2fd0460f5211d514b64736f6c63430008000033",
					"opcodes": "PUSH1 0x80 PUSH1 0x40 MSTORE CALLVALUE DUP1 ISZERO PUSH2 0x10 JUMPI PUSH1 0x0 DUP1 REVERT JUMPDEST POP PUSH2 0x360 DUP1 PUSH2 0x20 PUSH1 0x0 CODECOPY PUSH1 0x0 RETURN INVALID PUSH1 0x80 PUSH1 0x40 MSTORE CALLVALUE DUP1 ISZERO PUSH2 0x10 JUMPI PUSH1 0x0 DUP1 REVERT JUMPDEST POP PUSH1 0x4 CALLDATASIZE LT PUSH2 0x57 JUMPI PUSH1 0x0 CALLDATALOAD PUSH1 0xE0 SHR DUP1 PUSH4 0x60FE47B1 EQ PUSH2 0x5C JUMPI DUP1 PUSH4 0x6D4CE63C EQ PUSH2 0x78 JUMPI DUP1 PUSH4 0x82AB890A EQ PUSH2 0x96 JUMPI DUP1 PUSH4 0xA7F43779 EQ PUSH2 0xB2 JUMPI DUP1 PUSH4 0xB9F0BF66 EQ PUSH2 0xBC JUMPI JUMPDEST PUSH1 0x0 DUP1 REVERT JUMPDEST PUSH2 0x76 PUSH1 0x4 DUP1 CALLDATASIZE SUB DUP2 ADD SWAP1 PUSH2 0x71 SWAP2 SWAP1 PUSH2 0x26D JUMP JUMPDEST PUSH2 0xEC JUMP JUMPDEST STOP JUMPDEST PUSH2 0x80 PUSH2 0x132 JUMP JUMPDEST PUSH1 0x40 MLOAD PUSH2 0x8D SWAP2 SWAP1 PUSH2 0x2A5 JUMP JUMPDEST PUSH1 0x40 MLOAD DUP1 SWAP2 SUB SWAP1 RETURN JUMPDEST PUSH2 0xB0 PUSH1 0x4 DUP1 CALLDATASIZE SUB DUP2 ADD SWAP1 PUSH2 0xAB SWAP2 SWAP1 PUSH2 0x26D JUMP JUMPDEST PUSH2 0x178 JUMP JUMPDEST STOP JUMPDEST PUSH2 0xBA PUSH2 0x1BE JUMP JUMPDEST STOP JUMPDEST PUSH2 0xD6 PUSH1 0x4 DUP1 CALLDATASIZE SUB DUP2 ADD SWAP1 PUSH2 0xD1 SWAP2 SWAP1 PUSH2 0x244 JUMP JUMPDEST PUSH2 0x202 JUMP JUMPDEST PUSH1 0x40 MLOAD PUSH2 0xE3 SWAP2 SWAP1 PUSH2 0x2A5 JUMP JUMPDEST PUSH1 0x40 MLOAD DUP1 SWAP2 SUB SWAP1 RETURN JUMPDEST DUP1 PUSH1 0x0 DUP1 CALLER PUSH20 0xFFFFFFFFFFFFFFFFFFFFFFFFFFFFFFFFFFFFFFFF AND PUSH20 0xFFFFFFFFFFFFFFFFFFFFFFFFFFFFFFFFFFFFFFFF AND DUP2 MSTORE PUSH1 0x20 ADD SWAP1 DUP2 MSTORE PUSH1 0x20 ADD PUSH1 0x0 KECCAK256 DUP2 SWAP1 SSTORE POP POP JUMP JUMPDEST PUSH1 0x0 DUP1 PUSH1 0x0 CALLER PUSH20 0xFFFFFFFFFFFFFFFFFFFFFFFFFFFFFFFFFFFFFFFF AND PUSH20 0xFFFFFFFFFFFFFFFFFFFFFFFFFFFFFFFFFFFFFFFF AND DUP2 MSTORE PUSH1 0x20 ADD SWAP1 DUP2 MSTORE PUSH1 0x20 ADD PUSH1 0x0 KECCAK256 SLOAD SWAP1 POP SWAP1 JUMP JUMPDEST DUP1 PUSH1 0x0 DUP1 CALLER PUSH20 0xFFFFFFFFFFFFFFFFFFFFFFFFFFFFFFFFFFFFFFFF AND PUSH20 0xFFFFFFFFFFFFFFFFFFFFFFFFFFFFFFFFFFFFFFFF AND DUP2 MSTORE PUSH1 0x20 ADD SWAP1 DUP2 MSTORE PUSH1 0x20 ADD PUSH1 0x0 KECCAK256 DUP2 SWAP1 SSTORE POP POP JUMP JUMPDEST PUSH1 0x0 DUP1 CALLER PUSH20 0xFFFFFFFFFFFFFFFFFFFFFFFFFFFFFFFFFFFFFFFF AND PUSH20 0xFFFFFFFFFFFFFFFFFFFFFFFFFFFFFFFFFFFFFFFF AND DUP2 MSTORE PUSH1 0x20 ADD SWAP1 DUP2 MSTORE PUSH1 0x20 ADD PUSH1 0x0 KECCAK256 PUSH1 0x0 SWAP1 SSTORE JUMP JUMPDEST PUSH1 0x0 PUSH1 0x20 MSTORE DUP1 PUSH1 0x0 MSTORE PUSH1 0x40 PUSH1 0x0 KECCAK256 PUSH1 0x0 SWAP2 POP SWAP1 POP SLOAD DUP2 JUMP JUMPDEST PUSH1 0x0 DUP2 CALLDATALOAD SWAP1 POP PUSH2 0x229 DUP2 PUSH2 0x2FC JUMP JUMPDEST SWAP3 SWAP2 POP POP JUMP JUMPDEST PUSH1 0x0 DUP2 CALLDATALOAD SWAP1 POP PUSH2 0x23E DUP2 PUSH2 0x313 JUMP JUMPDEST SWAP3 SWAP2 POP POP JUMP JUMPDEST PUSH1 0x0 PUSH1 0x20 DUP3 DUP5 SUB SLT ISZERO PUSH2 0x256 JUMPI PUSH1 0x0 DUP1 REVERT JUMPDEST PUSH1 0x0 PUSH2 0x264 DUP5 DUP3 DUP6 ADD PUSH2 0x21A JUMP JUMPDEST SWAP2 POP POP SWAP3 SWAP2 POP POP JUMP JUMPDEST PUSH1 0x0 PUSH1 0x20 DUP3 DUP5 SUB SLT ISZERO PUSH2 0x27F JUMPI PUSH1 0x0 DUP1 REVERT JUMPDEST PUSH1 0x0 PUSH2 0x28D DUP5 DUP3 DUP6 ADD PUSH2 0x22F JUMP JUMPDEST SWAP2 POP POP SWAP3 SWAP2 POP POP JUMP JUMPDEST PUSH2 0x29F DUP2 PUSH2 0x2F2 JUMP JUMPDEST DUP3 MSTORE POP POP JUMP JUMPDEST PUSH1 0x0 PUSH1 0x20 DUP3 ADD SWAP1 POP PUSH2 0x2BA PUSH1 0x0 DUP4 ADD DUP5 PUSH2 0x296 JUMP JUMPDEST SWAP3 SWAP2 POP POP JUMP JUMPDEST PUSH1 0x0 PUSH2 0x2CB DUP3 PUSH2 0x2D2 JUMP JUMPDEST SWAP1 POP SWAP2 SWAP1 POP JUMP JUMPDEST PUSH1 0x0 PUSH20 0xFFFFFFFFFFFFFFFFFFFFFFFFFFFFFFFFFFFFFFFF DUP3 AND SWAP1 POP SWAP2 SWAP1 POP JUMP JUMPDEST PUSH1 0x0 DUP2 SWAP1 POP SWAP2 SWAP1 POP JUMP JUMPDEST PUSH2 0x305 DUP2 PUSH2 0x2C0 JUMP JUMPDEST DUP2 EQ PUSH2 0x310 JUMPI PUSH1 0x0 DUP1 REVERT JUMPDEST POP JUMP JUMPDEST PUSH2 0x31C DUP2 PUSH2 0x2F2 JUMP JUMPDEST DUP2 EQ PUSH2 0x327 JUMPI PUSH1 0x0 DUP1 REVERT JUMPDEST POP JUMP INVALID LOG2 PUSH5 0x6970667358 0x22 SLT KECCAK256 0xB5 0xEF 0x27 ADDMOD 0xF6 PUSH5 0x8D10134B8B CODESIZE 0x27 0xB3 PUSH22 0xD5C5FD7ABBFBF45F2FD0460F5211D514B64736F6C63 NUMBER STOP ADDMOD STOP STOP CALLER "
				},
				"gasEstimates": {
					"creation": {
						"codeDepositCost": "172800",
						"executionCost": "214",
						"totalCost": "173014"
					},
					"external": {
						"amount(address)": "1580",
						"get()": "1226",
						"remove()": "5286",
						"set(uint256)": "20487",
						"update(uint256)": "20531"
					}
				},
				"methodIdentifiers": {
					"amount(address)": "b9f0bf66",
					"get()": "6d4ce63c",
					"remove()": "a7f43779",
					"set(uint256)": "60fe47b1",
					"update(uint256)": "82ab890a"
				}
			},
			"storageLayout": {
				"storage": [
					{
						"astId": 5,
						"contract": "contracts/Map.sol:Map",
						"label": "amount",
						"offset": 0,
						"slot": "0",
						"type": "t_mapping(t_address,t_uint256)"
					}
				],
				"types": {
					"t_address": {
						"encoding": "inplace",
						"label": "address",
						"numberOfBytes": "20"
					},
					"t_mapping(t_address,t_uint256)": {
						"encoding": "mapping",
						"key": "t_address",
						"label": "mapping(address => uint256)",
						"numberOfBytes": "32",
						"value": "t_uint256"
					},
					"t_uint256": {
						"encoding": "inplace",
						"label": "uint256",
						"numberOfBytes": "32"
					}
				}
			},
			"userdoc": {
				"kind": "user",
				"methods": {},
				"version": 1
			}
		}
	}
}